:020000040800F2
:10000000D004002001010008410A0008B1090008DD
:10001000B5090008D90500081519000800000000FE
:10002000000000000000000000000000410C00087B
:10003000ED07000800000000C90A0008110F0008C1
:100040001B0100081B0100081B0100081B01000820
:100050001B0100081B0100081B0100081B01000810
:100060001B0100081B0100081B0100081B01000800
:100070001B0100081B0100081B0100081B010008F0
:100080001B0100081B0100081B0100081B010008E0
:100090001B0100081B0100081B0100081B010008D0
:1000A0001B0100081B0100081B0100081B010008C0
:1000B0001B010008E51100081B0100081B010008D6
:1000C0001B0100081B0100081B0100081B010008A0
:1000D0001B0100081B0100081B0100081B01000890
:1000E0001B0100081B0100081B010008DFF80CD0F1
:1000F00000F0AEF800480047551A0008D004002070
:100100000648804706480047FEE7FEE7FEE7FEE7B1
:10011000FEE7FEE7FEE7FEE7FEE7FEE7210F000849
:10012000ED00000880EA010210B502F00043400033
:1001300022D04A001FD0010E01EB1261C0F356001D
:10014000C2F3560240F4000042F40002A0FB022079
:1001500000047F39140400D0401C50EA124001D43E
:100160004000491EC2B20C0604EBD010401C4008EF
:10017000802A02D003E0002010BD20F001000029F9
:1001800000DA0020184310BDC10F80EAE070084477
:10019000CA079623002100F02CB800F0004220F09E
:1001A0000040C10DC0F3160040F400007F2901DAC1
:1001B00000207047962903DCC1F19601C84001E098
:1001C00096398840002AF4D040427047002801DB6D
:1001D000C0F10040002901DBC1F1004188427047B5
:1001E0000029A8BF7047401C490008BF20F001004B
:1001F000704710B4B0FA80FC00FA0CF050EA010429
:1002000004BF10BC704749B1CCF1200421FA04F4BA
:1002100011FA0CF118BF012121430843A3EB0C0193
:10022000CB1D4FEA00614FEA102042BF002010BCF6
:10023000704700EBC35010440029A4BF10BC7047A6
:10024000401C490008BF20F0010010BC70470000AE
:10025000064C074D06E0E06840F0010394E8070013
:1002600098471034AC42F6D3FFF744FF381B000820
:10027000581B000808B50121042000F057FC01219B
:10028000082000F053FC0121102000F04FFC052055
:10029000ADF8000018208DF8030003208DF802004F
:1002A0006946244800F0B4FA0A20ADF80000102096
:1002B0008DF8030003208DF8020069461D4800F008
:1002C000A7FA4FF4C040ADF8000004208DF80300F9
:1002D00003208DF802006946174800F099FA0121C1
:1002E000102000F023FCC020ADF8000004208DF8A1
:1002F000030003208DF802006946104800F088FAD8
:100300004FF48060ADF8000018208DF80300032042
:100310008DF802006946094800F07AFA4FF400604F
:10032000ADF8000004208DF803006946034800F092
:100330006FFA08BD00080140000C014000100140A8
:1003400000B58BB00121022000F0C0FB124800F084
:1003500089F912480090124801900020029009206B
:1003600003900020049080200590002006900790C4
:10037000202008904FF44050099000200A906946D0
:10038000054800F015FA0121034800F05FF905481F
:1003900000F04EF90BB000BD30040240044C0040A8
:1003A000C40000200002001010B500F0E9FDFFF7C6
:1003B00061FF00F0EBF800F01DF800F009F800F024
:1003C00009F9FFF7BDFF00F013F800F004F910BDC4
:1003D00010B54FF4A06000F06DFB012211461D2006
:1003E00001F018FB01220021342001F013FB10BDA5
:1003F0007047000000B58BB00121022000F076FBB1
:100400000020ADF822004720ADF8200042F20F7026
:10041000ADF824000020ADF8260008A9584801F0E6
:100420008BF901221146564801F09BF801215448EE
:1004300000F001FF0121C80200F078FB0121480310
:1004400000F074FB4F4800F003FF08A801F0C6F964
:100450000020ADF820004FF6FF70ADF8240000201A
:10046000ADF82600ADF8220008A9464801F064F96D
:1004700000231A460321434800F0DEFF05A801F0DF
:1004800067F80620ADF81C0005A93E4801F00AF8FF
:1004900000213C4801F021F901213A4800F0CBFE4F
:1004A000394800F0D5FE08A801F098F90020ADF811
:1004B00020004FF6FF70ADF824000020ADF82600B4
:1004C000ADF8220008A9304801F036F900231A4699
:1004D00003212D4800F0B0FF05A801F039F80620EF
:1004E000ADF81C0005A9284800F0DCFF00212648D3
:1004F00001F0F3F80121244800F09DFE0121084697
:1005000000F0F4FA4FF0804000F0A2FE0420ADF8B5
:1005100020000020ADF822004FF4FA60ADF824006E
:100520000020ADF8260008A94FF0804001F004F942
:100530007020ADF804000120ADF806004FF47A7089
:10054000ADF80A000220ADF80C0001A9400701F047
:1005500011F80821C80601F059F801A94FF08040B0
:1005600001F05EF80821C80601F0AAF80121880709
:1005700000F052FE0121880700F05DFE0BB000BDC7
:1005800000040040002C0140003401401FB54FF42E
:10059000E13000900020ADF80400ADF80600ADF8A1
:1005A0000800ADF80C000C20ADF80A000121C804C9
:1005B00000F09CFA6946064801F03CF9012240210E
:1005C000034801F020F90121014801F010F91FBD95
:1005D000004C00407047704700BFFEE712480078AB
:1005E000FA281FD110484078AF281BD10E488078D8
:1005F000062817D10C48C078702813D10A49097908
:10060000094A52791144084A92791144064AD2792A
:100610001144C8B20449097A814202D10121034A36
:10062000116000BF70470000C40000206800002077
:1006300000F0805111B10349086001E002494860AF
:1006400070470000040402400000024021B102682B
:1006500042F00102026004E002684FF6FE731A40A5
:100660000260704701684FF6FE7211400160002180
:10067000016041608160C1604B49884208D14A49AC
:100680000839496841F00F01474A083A51608AE049
:1006900045491431884208D143490839496841F035
:1006A000F001414A083A51607DE03F4928318842D3
:1006B00008D13D490839496841F470613A4A083A1D
:1006C000516070E038493C31884208D136490839D8
:1006D000496841F47041344A083A516063E0324954
:1006E0005031884208D130490839496841F47021B5
:1006F0002D4A083A516056E02B496431884208D1AE
:1007000029490839496841F47001274A083A51607B
:1007100049E025497831884208D123490839496898
:1007200041F07061204A083A51603CE01F4988421C
:1007300006D1011F096841F00F01021F116032E06C
:100740001A491431884208D11849091F096841F033
:10075000F001164A121F116025E014492831884221
:1007600008D11249091F096841F470610F4A121F2C
:10077000116018E00D493C31884208D10B49091F2E
:10078000096841F47041094A121F11600BE00749E2
:100790005031884207D10549091F096841F4702189
:1007A000024A121F1160704708000240080402400C
:1007B00010B50022026847F6F0739A430C6A8B6802
:1007C00023430C6923434C6923438C692343CC693D
:1007D00023434C6A23438C6A23431A430260CB6849
:1007E00043600B6883604B68C36010BD70470000B6
:1007F0000021064A116000BF0449096800EB40026D
:10080000C2EBC012B1EBC20FF6D970474C0000200A
:100810002DE9F04102460025002600200023002497
:10082000002791F803C00CF00F0591F803C00CF0FD
:10083000100CBCF1000F03D091F802C04CEA050582
:1008400091F800C0BCF1000F31D0146800202BE0FB
:100850004FF0010C0CFA00F3B1F800C00CEA0306EB
:100860009E4220D183004FF00F0C0CFA03F7BC43DB
:1008700005FA03FC4CEA040491F803C0BCF1280F0C
:1008800006D14FF0010C0CFA00FCC2F814C00AE0CB
:1008900091F803C0BCF1480F05D14FF0010C0CFAE0
:1008A00000FCC2F810C0401C0828D1D31460B1F875
:1008B00000C0BCF1FF0F34DD546800202EE000F1D1
:1008C000080C4FF0010808FA0CF3B1F800C00CEA6C
:1008D00003069E4221D183004FF00F0C0CFA03F760
:1008E000BC4305FA03FC4CEA040491F803C0BCF1D4
:1008F000280F05D100F1080C08FA0CF8C2F8148092
:1009000091F803C0BCF1480F07D100F1080C4FF07B
:10091000010808FA0CF8C2F81080401C0828CED351
:100920005460BDE8F081416170470161704700008B
:1009300070B5002500240C4800F09FFD05460B48CB
:1009400000682C1AB4F5004F03DBA4F57F44FF3C8C
:1009500005E014F5004F02DC4FF6FF700444034835
:100960000560204670BD0000002C014038000020CA
:1009700070B5002500240C4800F07FFD05460B48AB
:1009800000682C1AB4F5004F03DBA4F57F44FF3C4C
:1009900005E014F5004F02DC4FF6FF7004440348F5
:1009A0000560204670BD0000003401403C0000207E
:1009B00000BFFEE700BFFEE770B504460D460D48D8
:1009C00004600D4800680B4948600C4805600C48FD
:1009D00000680A494860074800F09EFF06B23046AA
:1009E00000F030F9054800F097FF06B2304600F0FD
:1009F00047F970BD74000020180000209C00002002
:100A00001C00002070B504460D46B4F5FA7F01DDE8
:100A10004FF4FA7414F5FA7F00DA084CB5F5FA7F52
:100A200001DD4FF4FA7415F5FA7F00DA034C20B2B9
:100A300000F008F928B200F023F970BD0CFEFFFFAA
:100A40007047000070B5002100230F22C47804B362
:100A5000154C246804F4E064C4F5E064210AC1F193
:100A60000403CA40447804FA03F184781440214313
:100A700009010E4C0678A155047804F01F050124E5
:100A8000AC4005786D11AD0005F1E025C5F80041D9
:100A900009E0047804F01F050124AC40044D0678F9
:100AA000761145F8264070BD0CED00E000E400E052
:100AB00080E100E002490143024A116070470000F2
:100AC0000000FA050CED00E07047000029B1064A6D
:100AD00052690243044B5A6104E0034A526982435B
:100AE000014B5A61704700000010024029B1064ACC
:100AF000D2690243044BDA6104E0034AD2698243BB
:100B0000014BDA61704700000010024029B1064A2B
:100B100012690243044B1A6104E0034A12698243DA
:100B2000014B1A61704700000010024029B1064ACB
:100B300092690243044B9A6104E0034A926982433A
:100B4000014B9A61704700000010024029B1064A2B
:100B5000D2680243044BDA6004E0034AD26882435D
:100B6000014BDA60704700000010024030B50021F0
:100B70000022002400232D4D6D6805F00C0121B1E9
:100B8000042905D0082923D105E0294D056022E07C
:100B9000274D05601FE0254D6D6805F47012234D4B
:100BA0006D6805F48034022505EB92421CB9214D95
:100BB000554305600BE01D4D6D6805F400351DB112
:100BC0001C4D5543056002E0194D5543056002E098
:100BD000174D056000BF00BF144D6D6805F0F001B2
:100BE0000909154D6B5C0568DD4045600F4D6D686A
:100BF00005F4E061090A104D6B5C4568DD408560D5
:100C00000A4D6D6805F46051C90A0B4D6B5C45686F
:100C1000DD40C560054D6D6805F44041890B074D09
:100C20006B5CC568B5FBF3F5056130BD0010024093
:100C300000127A0000093D005000002060000020F2
:100C40007047000010B50446002C0ADA02210B4858
:100C5000FFF769FE604281B24FF0804000F039FD3D
:100C60000AE002210548FFF760FEC4F5FA6081B290
:100C70004FF0804000F02DFD10BD00000008014045
:100C800010B50446604204B2002C0ADA08210B4871
:100C9000FFF749FE604281B24FF0804000F01BFD3B
:100CA0000AE008210548FFF740FEC4F5FA6081B26A
:100CB0004FF0804000F00FFD10BD00000008014023
:100CC00010B500F001F810BD0CB5002001900090A7
:100CD0003348006840F480303149086000BF304834
:100CE000006800F4003000900198401C01900098CA
:100CF00018B90198B0F5A06FF1D12948006800F447
:100D0000003010B10120009001E000200090009818
:100D1000012843D12348006840F0100021490860B1
:100D20000846006820F0030008600846006840F0AC
:100D3000020008601A48406819494860084640683F
:100D400048600846406840F4806048600846406853
:100D500020F47C1048600846406840F4E810486081
:100D60000846006840F08070086000BF0C480068CA
:100D700000F000700028F9D00948406820F0030016
:100D8000074948600846406840F00200486000BFDC
:100D90000348406800F00C000828F9D10CBD0000A1
:100DA00000100240002002402DE9F04705460C46A5
:100DB0000027B8463F492846FFF7B4F98146FFF7B8
:100DC000ECF90646FFF7E0F905463A492046FFF7F9
:100DD000A9F98146FFF7E1F90646FFF7D5F9044680
:100DE00000212846FFF7F2F900D800E00127002192
:100DF0002046FFF7EBF902D84FF0000801E04FF072
:100E00000108AA212C4800F016FE39462A4800F0B5
:100E100012FE4146284800F00EFE00212846FFF74A
:100E2000D5F901D2284601E085F000408146FFF760
:100E3000B4F9C0F3072631461F4800F0FCFD00213D
:100E40002846FFF7C3F901D2284601E085F00040AB
:100E50008146FFF7A2F9C6B23146174800F0EBFD14
:100E600000212046FFF7B2F901D2204601E084F0CC
:100E700000408146FFF791F9C0F3072631460E483E
:100E800000F0D9FD00212046FFF7A0F901D220464D
:100E900001E084F000408146FFF77FF9C6B2314699
:100EA000054800F0C8FD5521034800F0C4FDBDE829
:100EB000F08700000000C842004C004030B50146F9
:100EC000B1F1807F01D3012030BD21F07F40401E71
:100ED0004FF0E022506150170F22002807DA130765
:100EE0001D0E094B00F00F04241F1D5503E01307CE
:100EF0001C0E064B1C5400BF00204FF0E0229061F6
:100F0000072010610020DFE718ED00E000E400E0BA
:100F100002480068401C0149086070474C000020EE
:100F200010B51348006840F00100114908600846F8
:100F30004068104908400E494860084600680E495C
:100F400008400B4908600846006820F480200860CB
:100F50000846406820F4FE0048604FF41F00886097
:100F6000FFF7AEFE4FF000600449086010BD0000BE
:100F7000001002400000FFF8FFFFF6FE08ED00E061
:100F800010B5064800680649B0FBF1F42046FFF7AB
:100F900095FF08B100BFFEE710BD00000000002073
:100FA00040420F00F0B50C46154600220021068C89
:100FB0004FF6FE773E400684028B018C4FF60C768E
:100FC00032407E1C06EA03162E433243104EB042D6
:100FD0000ED0104EB0420BD0B0F1804F08D00E4E64
:100FE000B04205D00D4EB04202D00D4EB04206D1F7
:100FF0004FF6FD76314044F00106314305E04FF6EF
:10100000F576314044F00106314302830184F0BD9E
:10101000002C014000340140000400400008004062
:10102000000C0040F0B50C461546002200210026B9
:10103000078C4FF6EF7C07EA0C070784028B018CC4
:101040004FF6FF7707EA041640F6FF473A404FF69F
:10105000FF7707EA03373A434FF6FF7707EA05279A
:101060003A43114FB8420ED0104FB8420BD0B0F1F6
:10107000804F08D00E4FB84205D00E4FB84202D074
:101080000D4FB84206D14FF6DF77394046F01007D2
:10109000394305E04FF65F77394044F01007394394
:1010A00002830184F0BD0000002C014000340140A7
:1010B0000004004000080040000C0040F0B50C4661
:1010C0001546002200210026078C4FF6FF6C07EA28
:1010D0000C070784828B018C4FF6FF7707EA042602
:1010E0004FF60C773A404FF6FF7707EA03172F4386
:1010F0003A43114FB8420ED0104FB8420BD0B0F166
:10110000804F08D00E4FB84205D00E4FB84202D0E3
:101110000D4FB84206D14FF6FF57394046F480775D
:10112000394305E04FF2FF57394044F480773943A3
:1011300082830184F0BD0000002C01400034014096
:101140000004004000080040000C0040F0B50C46D0
:101150001546002200210026078C4EF6FF7C07EA88
:101160000C070784828B018C4FF6FF7707EA043661
:1011700040F6FF473A404FF6FF7707EA05273A4324
:101180004FF6FF7707EA03373A43114FB8420ED0C4
:10119000104FB8420BD0B0F1804F08D00E4FB8427C
:1011A00005D00E4FB84202D00D4FB84206D14DF6D1
:1011B000FF77394046F48057394305E047F6FF573B
:1011C000394044F48057394382830184F0BD0000E4
:1011D000002C0140003401400004004000080040A1
:1011E000000C004010B50121084800F049F9012821
:1011F0000BD10121054800F01BF8FFF7B9FB0449AA
:101200000860FFF795FB0349086010BD000400402B
:10121000180000201C00002021B1028842F080024A
:10122000028004E002884FF67F731A400280704704
:10123000CA430282704721B1028842F00102028053
:1012400004E002884FF6FE731A40028070470000E7
:1012500010B504466848844208D10121C014FFF744
:1012600075FC0021E014FFF771FCC4E0B4F1804F7D
:1012700008D101210846FFF749FC00210120FFF7B2
:1012800045FCB8E05D48844208D101210220FFF707
:101290003DFC00210220FFF739FCACE058488442B5
:1012A00008D101210420FFF731FC00210420FFF7C1
:1012B0002DFCA0E05348844208D101210820FFF70B
:1012C00025FC00210820FFF721FC94E04E488442D1
:1012D00008D101211020FFF719FC00211020FFF791
:1012E00015FC88E04948844208D101212020FFF7FD
:1012F0000DFC00212020FFF709FC7CE044488442DB
:1013000008D101214014FFF721FC00216014FFF7F0
:101310001DFC70E03F48844209D10121C804FFF759
:1013200015FC00214FF40020FFF710FC63E03A4861
:10133000844209D101210805FFF708FC00214FF480
:101340008010FFF703FC56E03448844209D10121A4
:101350004805FFF7FBFB00214FF40010FFF7F6FBF9
:1013600049E02F48844208D101214020FFF7CEFBFD
:1013700000214020FFF7CAFB3DE02A48844208D103
:1013800001218020FFF7C2FB00218020FFF7BEFB78
:1013900031E02548844208D101218015FFF7B6FBD2
:1013A0000021A015FFF7B2FB25E02048844209D1B7
:1013B00001210804FFF7CAFB00214FF48030FFF73A
:1013C000C5FB18E01A48844209D101214804FFF7FF
:1013D000BDFB00214FF40030FFF7B8FB0BE01548D0
:1013E000844208D101218804FFF7B0FB00214FF4AB
:1013F0008020FFF7ABFB10BD002C01400004004033
:1014000000080040000C00400010004000140040A4
:1014100000340140004C01400050014000540140A4
:1014200000180040001C0040002000400040014027
:101430000044014000480140F0B50C4615461E46E8
:101440000021002200230189028B038C4FF6F877DC
:10145000394021434FF6FC473A4040F201173A43E6
:101460004FF6DD773B404FF6FF7707EA06172F432D
:101470003B43018102830384F0BD0146888C7047A1
:1014800030B50246002000230024158A05EA010336
:10149000958905EA010413B10CB1012000E0002098
:1014A00030BD000070B505460C46244885420ED07C
:1014B000234885420BD0B5F1804F08D021488542A2
:1014C00005D02148854202D02048854200D100E065
:1014D00000BF208850B92389A28861882846FFF779
:1014E00061FDE188284600F0FAF825E0208804280C
:1014F0000AD12389A28861882846FFF793FDE188F5
:10150000284600F0F5F817E0208808280AD123893A
:10151000A28861882846FFF7D1FDE188284600F0BF
:10152000F4F809E02389A28861882846FFF70EFEB7
:10153000E188284600F0F2F870BD0000002C014060
:10154000003401400004004000080040000C00404E
:10155000002101804180012181800021C180018121
:1015600070471AB183890B43838102E083898B43DF
:101570008381704770B5002400220023058C4FF64C
:10158000FE7635400584028C8388048B4FF68F7578
:101590002C40B51E2C400D882C43751E2A400D8909
:1015A0002A434D882A43144DA8420BD0134DA8421C
:1015B00008D0134DA84205D0124DA84202D0124DBA
:1015C000A84213D14FF6F7752A404D892A434FF6AA
:1015D000FB752A408D882A434FF6FF652B404FF656
:1015E000FF552B408D892B43CD892B43838004836A
:1015F000CD888586028470BD002C014000340140F6
:101600000040014000440140004801400A460021DA
:10161000018B4FF6F77319401143018370470000A7
:1016200070B5002400220023058C4FF6FF6635407C
:101630000584028C8388848B4FF68F752C404FF67F
:10164000FC752C400D882C434FF6FF552A400D8920
:101650004FF6FF7606EA05252A434D8806EA05255A
:101660002A43154DA84202D0144DA8421DD14FF275
:10167000FF752A404D894FF6FF7606EA05252A4375
:101680004FF6FF352A408D8806EA05252A434EF697
:10169000FF752B404DF6FF752B408D8906EA051529
:1016A0002B43CD8906EA05152B4383808483CD889F
:1016B0008587028470BD0000002C01400034014089
:1016C0000A460021818B4FF6F7731940114381833D
:1016D0007047818670478187704781847047028B8D
:1016E0004FF6F3731A400283028B0A43028370475A
:1016F000028B4FF2FF331A400283028B4FF6FF73C7
:1017000003EA01231A4302837047828B4FF6F37377
:101710001A408283828B0A4382837047828B4FF206
:10172000FF331A408283828B4FF6FF7303EA012353
:101730001A43828370470000002202881D4B9842A2
:101740000ED01D4B98420BD0B0F1804F08D01B4BF0
:10175000984205D01A4B984202D01A4B984204D1B5
:101760004FF68F731A404B881A43174B984207D095
:10177000164B984204D04FF6FF431A40CB881A43C9
:1017800002808B8883850B8803850A4B98420BD097
:10179000094B984208D00E4B984205D00D4B984209
:1017A00002D00D4B984201D10B7A0386012383822C
:1017B00070470000002C014000340140000400404C
:1017C00000080040000C00400010004000140040E1
:1017D0000040014000440140004801404FF6FF71C5
:1017E000818000210180C18041800172704721B158
:1017F000828942F40052828104E082894DF6FF73AF
:101800001A40828170471AB1838A0B43838202E0B7
:10181000838A8B438382704702460020B1F5007FA4
:1018200000D100BF13880B400BB1012000E0002065
:10183000704700002DE9F04786B005460E460024AB
:10184000A24600BFA1460027B08900B100BF2F46C5
:101850002C8A4CF6FF700440F08804432C82AC893B
:101860004EF6F3100440B08831890843718908436B
:101870000443AC81AC8A4FF6FF400440B089044376
:10188000AC8201A8FFF772F91F48874202D1DDF848
:1018900010A001E0DDF80CA0A88900F4004040B1E0
:1018A0000AEBCA0000EB0A1031684900B0FBF1F8FE
:1018B00007E00AEBCA0000EB0A1031688900B0FBB0
:1018C000F1F86420B8FBF0F004012009642101FB69
:1018D0001089A88900F4004040B1322000EBC90013
:1018E000B0FBF1F000F00700044308E0322000EB09
:1018F00009106421B0FBF1F000F00F0004432C81CB
:1019000006B0BDE8F087000000380140C1F30802CE
:101910008280704700BFFEE72DE9F04704460025AE
:1019200000260027D4E90001451AA0682E1A206974
:101930004719A560E660276119480068854207DA03
:10194000174800684042854202DD206A606211E06B
:101950003846FEF719FC8146A169FEF7E3FB804695
:10196000FEF71BFC616901FB0500E16901FB060054
:10197000401060620B49606A0968884203DB0948CD
:101980000068606207E00849606A0968884202DC12
:10199000054800686062606A2062606ABDE8F0879E
:1019A00048000020400000204400002000B5032033
:1019B0000A4948614FF07E5088610020C8610320C9
:1019C000074948614FF07E5088610020C861034894
:1019D00000F008F8024800F005F800BD740000208F
:1019E0009C0000200021416201614160C160816072
:1019F00001600162704702E008C8121F08C1002A96
:101A0000FAD170477047002001E001C1121F002A7F
:101A1000FBD17047F8B506460C4615468DF80060B8
:101A20008DF801408DF8025001208DF803006846C2
:101A3000FFF708F8F8BD70B504460D4600BF402119
:101A40002046FFF7E9FE0028F9D029462046FFF797
:101A50005DFF70BDFFF7AAFFFFF762FAFEF7A4FC77
:101A60000020FFF7EFF80020FFF70AF94FE02848C1
:101A70000068FEF789FB2749086027480068FEF7E1
:101A800083FB264908600846016822480068FFF782
:101A90008BF9FEF7A3FD22480068A0B10020204981
:101AA0000860204880791F49C97900EB012000B205
:101AB0001D4908801B4800791A49497900EB01202B
:101AC00000B21A4908801848008810B917480088E1
:101AD00080B1154AB2F90020144BB3F90030D11A85
:101AE000114AB2F90020114BB3F90030D018FEF7BB
:101AF00063FF09E000210846FEF784FF0C48FFF76A
:101B000071FF0C48FFF76EFF0A20FEF771FEAEE78B
:101B1000180000206C0000201C0000207000002035
:101B200068000020C400002064000020660000203F
:101B3000740000209C000020581B000800000020BA
:101B400074000000F6190008CC1B00087400002087
:101B50005C040000061A000800A24A04000000000D
:101B6000000000000102030406070809000000004D
:101B70000000000000000000000000000000000065
:101B80000000000000000000000000000000000055
:101B9000000000000000000008070000F8F8FFFF48
:101BA0000300000000000000000000000102030428
:101BB00001020304060708090204060800000000E9
:0C1BC00000000000000000000000000019
:04000005080000ED02
:00000001FF
