:020000040800F2
:10000000D805002001010008590F0008DD0D000887
:10001000E10D0008D50800083321000800000000A9
:10002000000000000000000000000000C5120008F1
:10003000E90A000800000000E10F00089914000818
:100040001B0100081B0100081B0100081B01000820
:100050001B0100081B0100081B0100081B01000810
:100060001B0100081B0100081B0100081B01000800
:100070001B0100081B0100081B0100081B010008F0
:100080001B0100081B0100081B0100081B010008E0
:100090001B0100081B0100081B0100081B010008D0
:1000A0001B0100081B0100081B0100081B010008C0
:1000B000B5170008CD170008051900081B01000836
:1000C0001B0100081B0100081B0100081B010008A0
:1000D0001B010008591F00081B0100081B01000834
:1000E0001B0100081B0100081B010008DFF80CD0F1
:1000F00000F056FB00480047312A0008D8050020D0
:100100000648804706480047FEE7FEE7FEE7FEE7B1
:10011000FEE7FEE7FEE7FEE7FEE7FEE7A9140008BC
:10012000ED000008F0B480EA0102D40F4200B2EB07
:10013000410F02D20246084611464A0042D0C30D82
:10014000DDB2C1F3C752AD1A202D35DAC1F3160165
:1001500041F4000204B15242C5F1200602FA06F150
:100160002A411044B3EBD05F23D0C4B1012DA0EBE2
:10017000C35009DCF0BC4FF0004202EAC352DBB2CC
:1001800000F5000000F080BA400000F1807000EB44
:10019000C350A0F1807040EAD170490009E04908DD
:1001A00041EAC071A0EBC35000F50000400800EB2D
:1001B000C350F0BC00F05FBA6142012202EB410182
:1001C000001BF6E7F0BC704781F00041AAE780F021
:1001D0000040A7E780EA010210B502F000434000AA
:1001E00022D04A001FD0010E01EB1261C0F356006D
:1001F000C2F3560240F4000042F40002A0FB0220C9
:1002000000047F39140400D0401C50EA124001D48D
:100210004000491EC2B20C0604EBD010401C40083E
:10022000802A02D003E0002010BD20F00100002948
:1002300000DA0020184310BD2DE9FE4F804681EA08
:100240000300C00F0C46009021F0004123F0004550
:10025000B8EB0200A94105D24046214690461C4613
:100260000B46024623F00040104347D0270DC7F34A
:100270000A00C3F30A510290401A019040286BDA39
:10028000C3F3130040F4801B0098924620B1002372
:10029000D2EB030A63EB0B0B01985946C0F1400205
:1002A000504600F0C7F906460D4650465946019A99
:1002B00000F0CFF910EB08006141002487EA1152E9
:1002C00084EAE7731A4340D0009A62B3019A012A84
:1002D0004FEA075215DC001B61EB02014FF00042B0
:1002E00002EA0752CDE90042001C41F58011324676
:1002F0002B4600F006FA03B0BDE8F08F40462146D9
:10030000F9E7001B61EB0201001C41F580130018A6
:100310005B412018A2F5001747EB030140EAD570B6
:10032000B6196D4111E06D084FEA360645EAC07511
:100330004FEA0752001B61EB0201001C41F58011DE
:1003400049084FEA30000019514132462B4603B0AC
:10035000BDE8F04F00F0C6B900980122400000232C
:10036000D0EB020263EBE073009821464FEAE074A1
:10037000B8EB000061EB0401E9E783F000435BE7C1
:1003800081F0004158E72DE9FE4F81EA030404F0B3
:10039000004421F0004100944FF0000B23F0004393
:1003A00050EA01045ED052EA03045BD0C3F30A545E
:1003B000C1F30A552C44A4F2F3340194A0FB025477
:1003C000C1F3130141F48011C3F3130343F4801309
:1003D00001FB024400FB034E840A970A44EA81545D
:1003E00047EA8357A4FB076802958D0A05FB07853A
:1003F0004FEA932C04FB0C542705029D4FEA065844
:1004000047EA1637B5EB08056EEB070C870E920E20
:1004100047EA811742EA8312A7FB0201B6EB0B0100
:1004200064EB00042B0D43EA0C335E1844EB1C50C4
:10043000DA465146E7FB0201C5F313044FEA0B33DA
:1004400043EA14534FEA0432019C43EA0603A4F141
:100450000C040294009CCDE900B400F052F903B002
:10046000BDE8F08F00200146F9E72DE9F04D81EA63
:10047000030404F0004B21F0004514464FF0000A3D
:1004800023F0004150EA050220D054EA01021DD0B9
:10049000C5F30A570246C5F31303C1F31300C1F3B2
:1004A0000A5640F4801543F48013A7EB0608101B8E
:1004B000D64608F2FD3873EB050002D308F10108B7
:1004C00001E092185B41B8F1000F03DA0020014609
:1004D000BDE8F08D00204FF48011064684460EE002
:1004E000171B73EB050705D3121B63EB05030643CC
:1004F0004CEA010C49084FEA300092185B4150EA7F
:100500000107EDD152EA030012D082EA040083EA27
:100510000501084305D0101BAB4106D20122002380
:1005200006E000224FF0004302E06FF0010253109A
:100530001AEB06004CEB085110EB0A0041EB0B01E3
:10054000BDE8F04D00F0CEB8C10F80EAE07008447D
:10055000CA079623002100F097B80EB5C10F80EAB4
:10056000E0700844CA07002140F233438DE80E00D2
:100570000A460B4600F0C5F803B000BD00F000428B
:1005800020F00040C10DC0F3160040F400007F29A8
:1005900001DA00207047962903DCC1F19601C840BA
:1005A00001E096398840002AF4D04042704700F0BC
:1005B000004230F000400AD0C10D01F56071C0F377
:1005C000160042EA0151C20840071143704700205B
:1005D0000146704701F0004330B421F0004150EA79
:1005E000010206D00A0DA2F56072C1F31301002AC0
:1005F00002DC30BC00207047440F44EAC104C10053
:10060000E01830BC00EBC25000F035B8002801DB28
:10061000C0F10040002901DBC1F100418142704777
:10062000002801DBC0F10040002901DBC1F10041DD
:1006300088427047202A04DB203A00FA02F10020A9
:1006400070479140C2F1200320FA03F31943904010
:100650007047202A06DBCB17203A41FA02F043EA22
:10066000E07306E041FA02F3D040C2F1200291406B
:100670000843194670470029A8BF7047401C49002D
:1006800008BF20F00100704710B4B0FA80FC00FAF7
:100690000CF050EA010404BF10BC704749B1CCF122
:1006A000200421FA04F411FA0CF118BF01212143AE
:1006B0000843A3EB0C01CB1D4FEA00614FEA102069
:1006C00042BF002010BC704700EBC350104400290B
:1006D000A4BF10BC7047401C490008BF20F00100B7
:1006E00010BC704710B5141E73F1000408DA401CEA
:1006F00041F1000192185B411A4301D120F0010041
:1007000010BD2DE9F04D92469B4611B1B1FA81F230
:1007100002E0B0FA80F220329046FFF78BFF0446E9
:100720000F4640EA0A0041EA0B0153465A46084385
:1007300013D0114653EA010019D0C8F140025046C7
:1007400000F040F805460E46504659464246FFF72F
:1007500071FF084305D0012004E020463946BDE87A
:10076000F08D0020054346EAE0762C4337430A9893
:100770006305E40AA0EB08000022FD0A44EA47549E
:100780000A3002D500200146E9E701051019694148
:10079000DDE9084500196941BDE8F04DA2E7000018
:1007A000064C074D06E0E06840F0010394E80700BE
:1007B00098471034AC42F6D3FFF79CFCF82C0008A5
:1007C000182D0008202A04DB203A21FA02F000212B
:1007D000704721FA02F3D040C2F120029140084351
:1007E0001946704770B521F0004303430CD0C1F3A4
:1007F0000A550024D5EB040564EB0403D617AD1AA3
:10080000B34102DB0020014670BD201841EB0251CC
:1008100070BD0EB540F2334102910021CDE90011C7
:100820000A460B46FFF76DFF03B000BD70B5C1F37C
:100830000A5201F000450024C1F3130140F2FF33D6
:1008400041F480119A4201DA002070BD40F2334336
:100850009A42A2F2334203DC5242FFF7B3FF00E0B8
:1008600090402C43F1D0404270BD000000B58BB0E9
:100870000121022000F0B6FB124800F071F8124886
:10088000009012480190002002900920039000205F
:10089000049080200590002006900790202008906A
:1008A0004FF44050099000200A906946054800F036
:1008B000FDF80121034800F047F8054800F036F83C
:1008C0000BB000BD30040240044C0040C9010020C0
:1008D0000002001000BFFEE712480078FA281FD17E
:1008E00010484078AF281BD10E488078062817D1D1
:1008F0000C48C078702813D10A490979094A5279FD
:100900001144084A92791144064AD2791144C8B276
:100910000449097A814202D10121034A116000BFD2
:1009200070470000C9010020B000002000F0805195
:1009300011B10349086001E00249486070470000B6
:10094000040402400000024021B1026842F00102AA
:10095000026004E002684FF6FE731A4002607047BE
:1009600001684FF6FE721140016000210160416094
:100970008160C1604B49884208D14A4908394968B9
:1009800041F00F01474A083A51608AE04549143165
:10099000884208D143490839496841F0F001414A89
:1009A000083A51607DE03F492831884208D13D49ED
:1009B0000839496841F470613A4A083A516070E078
:1009C00038493C31884208D136490839496841F4F0
:1009D0007041344A083A516063E0324950318842EC
:1009E00008D130490839496841F470212D4A083A44
:1009F000516056E02B496431884208D129490839B1
:100A0000496841F47001274A083A516049E0254994
:100A10007831884208D123490839496841F070612A
:100A2000204A083A51603CE01F49884206D1011F24
:100A3000096841F00F01021F116032E01A491431B8
:100A4000884208D11849091F096841F0F001164A87
:100A5000121F116025E014492831884208D112493B
:100A6000091F096841F470610F4A121F116018E0F4
:100A70000D493C31884208D10B49091F096841F4EE
:100A80007041094A121F11600BE00749503188423A
:100A900007D10549091F096841F47021024A121F54
:100AA00011607047080002400804024010B500229F
:100AB000026847F6F0739A430C6A8B6823430C690B
:100AC00023434C6923438C692343CC6923434C6AF9
:100AD00023438C6A23431A430260CB6843600B684C
:100AE00083604B68C36010BD704700000021064A58
:100AF000116000BF0449096800EB4002C2EBC0125C
:100B0000B1EBC20FF6D970479000002008B5012163
:100B1000082000F097FA4FF4C040ADF80000042020
:100B20008DF8030003208DF8020069460A4800F0A2
:100B300089F80121102000F085FAC020ADF80000EE
:100B400004208DF8030003208DF802006946034855
:100B500000F078F808BD0000000C014000100140D2
:100B600010B5FFF7D3FF00F001F810BD00B587B056
:100B70000121C80200F066FA0121480300F062FA80
:100B80002E4800F0E9FE04A801F0ACF90020ADF811
:100B900010004FF6FF70ADF814000020ADF81600FD
:100BA000ADF8120004A9254801F04AF900231A46BD
:100BB0000321224800F0C4FF01A801F04DF80620EF
:100BC000ADF80C0001A91D4800F0F0FF00211B4802
:100BD00001F007F90121194800F0B1FE184800F0B2
:100BE000BBFE04A801F07EF90020ADF810004FF61E
:100BF000FF70ADF814000020ADF81600ADF812003B
:100C000004A90F4801F01CF900231A4603210C48DF
:100C100000F096FF01A801F01FF80620ADF80C00C7
:100C200001A9074800F0C2FF0021054801F0D9F8EA
:100C30000121034800F083FE07B000BD002C0140F5
:100C4000003401402DE9F041024600250026002035
:100C500000230024002791F803C00CF00F0591F841
:100C600003C00CF0100CBCF1000F03D091F802C0CF
:100C70004CEA050591F800C0BCF1000F31D01468B2
:100C800000202BE04FF0010C0CFA00F3B1F800C08B
:100C90000CEA03069E4220D183004FF00F0C0CFAA1
:100CA00003F7BC4305FA03FC4CEA040491F803C0C3
:100CB000BCF1280F06D14FF0010C0CFA00FCC2F871
:100CC00014C00AE091F803C0BCF1480F05D14FF001
:100CD000010C0CFA00FCC2F810C0401C0828D1D34B
:100CE0001460B1F800C0BCF1FF0F34DD546800207F
:100CF0002EE000F1080C4FF0010808FA0CF3B1F8EF
:100D000000C00CEA03069E4221D183004FF00F0C75
:100D10000CFA03F7BC4305FA03FC4CEA040491F80F
:100D200003C0BCF1280F05D100F1080C08FA0CF83B
:100D3000C2F8148091F803C0BCF1480F07D100F14C
:100D4000080C4FF0010808FA0CF8C2F81080401C9B
:100D50000828CED35460BDE8F0814161704701613D
:100D60007047000070B5064600250024304600F0AC
:100D700008FF0546094800682C1AB4F5004F03DB4C
:100D8000A4F57F44FF3C05E014F5004F02DC4FF66C
:100D9000FF70044401480560204670BD5C000020DF
:100DA00070B5064600250024304600F0EAFE0546F0
:100DB000094800682C1AB4F5004F03DBA4F57F4402
:100DC000FF3C05E014F5004F02DC4FF6FF700444D1
:100DD00001480560204670BD6000002000BFFEE7AE
:100DE00000BFFEE708B50121042000F02BF9052023
:100DF000ADF8000018208DF8030003208DF80200E4
:100E000069460A48FFF71EFF0121042000F01AF985
:100E10000A20ADF8000010208DF8030003208DF8A3
:100E2000020069460148FFF70DFF08BD00080140B8
:100E300010B5FFF7D7FF00F007F8002000F044FAE4
:100E4000002000F05FFA10BD00B587B00121084610
:100E500000F0D8F84FF0804000F07EFD0420ADF89F
:100E600010000020ADF812004FF4FA60ADF8140045
:100E70000020ADF8160004A94FF0804000F0E0FF1C
:100E80007020ADF800000120ADF802004FF47A7038
:100E9000ADF806000220ADF808006946400700F0F2
:100EA000EDFE0821C80600F035FF69464FF080408E
:100EB00000F03AFF0821C80600F086FF01218807EC
:100EC00000F02EFD0121880700F039FD07B000BDBC
:100ED00070B504460D460D4804600D4800680B4986
:100EE00048600C4805600C4800680A49486007489B
:100EF00001F084F906B2304600F0E6F9054801F049
:100F00007DF906B2304600F0FDF970BD7001002099
:100F100018000020980100201C00002070B5044635
:100F20000D46B4F5FA7F01DD4FF4FA7414F5FA7F3B
:100F300000DA084CB5F5FA7F01DD4FF4FA7415F5C7
:100F4000FA7F00DA034C20B200F0BEF928B200F0BC
:100F5000D9F970BD0CFEFFFF7047000070B500218D
:100F600000230F22C47804B3154C246804F4E06411
:100F7000C4F5E064210AC1F10403CA40447804FACC
:100F800003F184781440214309010E4C0678A155E1
:100F9000047804F01F050124AC4005786D11AD0004
:100FA00005F1E025C5F8004109E0047804F01F05CB
:100FB0000124AC40044D0678761145F8264070BDFA
:100FC0000CED00E000E400E080E100E002490143B4
:100FD000024A1160704700000000FA050CED00E0C5
:100FE0007047000029B1064A52690243044B5A6116
:100FF00004E0034A52698243014B5A617047000082
:101000000010024029B1064AD2690243044BDA615A
:1010100004E0034AD2698243014BDA617047000061
:101020000010024029B1064A12690243044B1A61BA
:1010300004E0034A12698243014B1A6170470000C1
:101040000010024029B1064A92690243044B9A619A
:1010500004E0034A92698243014B9A6170470000A1
:101060000010024029B1064AD2680243044BDA60FC
:1010700004E0034AD2688243014BDA607047000003
:101080000010024030B500210022002400232D4D25
:101090006D6805F00C0121B1042905D0082923D180
:1010A00005E0294D056022E0274D05601FE0254D34
:1010B0006D6805F47012234D6D6805F480340225C7
:1010C00005EB92421CB9214D554305600BE01D4DC7
:1010D0006D6805F400351DB11C4D5543056002E0F7
:1010E000194D5543056002E0174D056000BF00BF74
:1010F000144D6D6805F0F0010909154D6B5C05682C
:10110000DD4045600F4D6D6805F4E061090A104D42
:101110006B5C4568DD4085600A4D6D6805F4605183
:10112000C90A0B4D6B5C4568DD40C560054D6D68B7
:1011300005F44041890B074D6B5CC568B5FBF3F5C1
:10114000056130BD0010024000127A0000093D0028
:1011500094000020A40000202DE9F34F87B08A46B8
:101160004F4806904F4800684F490968401A0028C8
:1011700005DD4C4800684C490968401A04E04A48BB
:10118000006848490968401A03281FDB4449504653
:10119000FFF720F845490390FFF71CF88346FFF757
:1011A00006FA8046424A434BFFF75FF9CDE9040156
:1011B00041490868FFF7FBF90646DDE90423FFF71C
:1011C0003BF80446FFF706FA3B4908603A490868CD
:1011D0003A49FFF725FA06D8374908683749FEF734
:1011E000F3FF35490860344908683549FFF70EFABE
:1011F00006D8314908683149FEF794FF2E49086046
:101200002D490868FFF7D3F9CDE9000101F096FBFD
:10121000CDE90401DDE90610FEF7DCFF8346FFF7A8
:10122000C6F9CDE90201DDE90423FFF7ACF8044675
:101230000D4621494868FFF7BAF9064622462B4673
:10124000FEF7FAFF8046FFF7C5F91B4948600868BA
:10125000FFF7ADF9804601F06FFCCDE90001DDE953
:101260000610FEF7B7FF8046FFF7A1F90646DDE955
:101270000023FFF788F8CDE902010F498868FFF7DE
:1012800096F90446DDE90223FEF7D6FFCDE9040115
:10129000FFF7A0F90849886009B0BDE8F08F0000A9
:1012A0000000A0401C000020180000200000344373
:1012B000EA2E4454FB210940C40000200000B4433E
:1012C0000000B4C37047000010B50446002C0ADAD1
:1012D00002210B48FFF741FD604281B24FF0804090
:1012E00000F07BFD0AE002210548FFF738FDC4F558
:1012F000FA6081B24FF0804000F06FFD10BD000039
:101300000008014010B50446604204B2002C0ADA1D
:1013100008210B48FFF721FD604281B24FF0804069
:1013200000F05DFD0AE008210548FFF718FDC4F54F
:10133000FA6081B24FF0804000F051FD10BD000016
:101340000008014010B500F001F810BD0CB50020F8
:10135000019000903348006840F4803031490860C3
:1013600000BF3048006800F4003000900198401C35
:101370000190009818B90198B0F5A06FF1D12948F3
:10138000006800F4003010B10120009001E000205E
:1013900000900098012843D12348006840F01000D5
:1013A000214908600846006820F0030008600846EC
:1013B000006840F0020008601A4840681949486017
:1013C0000846406848600846406840F480604860CD
:1013D0000846406820F47C1048600846406840F4A5
:1013E000E81048600846006840F08070086000BF60
:1013F0000C48006800F000700028F9D009484068E7
:1014000020F00300074948600846406840F00200A9
:10141000486000BF0348406800F00C000828F9D17C
:101420000CBD0000001002400020024010B5AA21AF
:10143000164800F07AFE00BF8021144800F0CCFD71
:101440000028F9D012480178104800F06EFE00BF65
:1014500080210E4800F0C0FD0028F9D00D48017829
:101460000A4800F062FE00BF8021084800F0B4FD89
:101470000028F9D05521054800F057FE00BF802113
:10148000024800F0A9FD0028F9D010BD004C004032
:10149000BC000020BD00002002480068401C01493B
:1014A000086070479000002010B51348006840F0B5
:1014B00001001149086008464068104908400E497B
:1014C0004860084600680E4908400B490860084615
:1014D000006820F4802008600846406820F4FE0080
:1014E00048604FF41F008860FFF72CFF4FF000604A
:1014F0000449086010BD0000001002400000FFF821
:10150000FFFFF6FE08ED00E030B516480068164A09
:10151000B0FBF2F1B1F1807F01D301201DE021F099
:101520007F40401E4FF0E022506150170F220028EC
:1015300007DA13071D0E0D4B00F00F04241F1D5575
:1015400003E013071C0E0A4B1C5400BF00204FF091
:10155000E022906107201061002008B100BFFEE783
:1015600030BD00000000002040420F0018ED00E0F8
:1015700000E400E0F0B50C46154600220021068C80
:101580004FF6FE773E400684028B018C4FF60C76B8
:1015900032407E1C06EA03162E433243104EB04200
:1015A0000ED0104EB0420BD0B0F1804F08D00E4E8E
:1015B000B04205D00D4EB04202D00D4EB04206D121
:1015C0004FF6FD76314044F00106314305E04FF619
:1015D000F576314044F00106314302830184F0BDC9
:1015E000002C01400034014000040040000800408D
:1015F000000C0040F0B50C461546002200210026E4
:10160000078C4FF6EF7C07EA0C070784028B018CEE
:101610004FF6FF7707EA041640F6FF473A404FF6C9
:10162000FF7707EA03373A434FF6FF7707EA0527C4
:101630003A43114FB8420ED0104FB8420BD0B0F120
:10164000804F08D00E4FB84205D00E4FB84202D09E
:101650000D4FB84206D14FF6DF77394046F01007FC
:10166000394305E04FF65F77394044F010073943BE
:1016700002830184F0BD0000002C014000340140D1
:101680000004004000080040000C0040F0B50C468B
:101690001546002200210026078C4FF6FF6C07EA52
:1016A0000C070784828B018C4FF6FF7707EA04262C
:1016B0004FF60C773A404FF6FF7707EA03172F43B0
:1016C0003A43114FB8420ED0104FB8420BD0B0F190
:1016D000804F08D00E4FB84205D00E4FB84202D00E
:1016E0000D4FB84206D14FF6FF57394046F4807788
:1016F000394305E04FF2FF57394044F480773943CE
:1017000082830184F0BD0000002C014000340140C0
:101710000004004000080040000C0040F0B50C46FA
:101720001546002200210026078C4EF6FF7C07EAB2
:101730000C070784828B018C4FF6FF7707EA04368B
:1017400040F6FF473A404FF6FF7707EA05273A434E
:101750004FF6FF7707EA03373A43114FB8420ED0EE
:10176000104FB8420BD0B0F1804F08D00E4FB842A6
:1017700005D00E4FB84202D00D4FB84206D14DF6FB
:10178000FF77394046F48057394305E047F6FF5765
:10179000394044F48057394382830184F0BD00000E
:1017A000002C0140003401400004004000080040CB
:1017B000000C004010B50121880700F0E5F918B1D0
:1017C0000121880700F0B8F810BD00002DE9F05F96
:1017D0000121414800F0D8F901287BD101213E4880
:1017E00000F0AAF83D480068401C3C4908603C48AD
:1017F000FFF7D6FA3B4908603B48FFF7B3FA3B498D
:10180000086038480068FEF79FFE8046FEF7CFFE6E
:1018100006464FF06632364BFEF727FE0446354843
:101820000CC82046FEF708FD324A03C22F48006864
:10183000FEF78AFE8046FEF7BAFE06464FF0663295
:101840002B4BFEF712FE04462B480CC82046FEF731
:10185000F3FC294A03C2274827490CC803C9FEF7ED
:10186000EBFC264A03C21D480068052832D100203F
:101870001A4908601D4909681A4A1268881AFEF751
:101880006CFE804600221E4BFEF7EFFD06464FF031
:101890006632174BFEF7E9FD0446FEF79BFE8246D3
:1018A00010490968114A12688818FEF756FE8046EA
:1018B00000224FF08043FEF7D8FD06464FF0663217
:1018C0000B4BFEF7D2FD0446FEF784FE83465146DD
:1018D000FFF742FCBDE8F09F0004004080000020BC
:1018E0000034014018000020002C01401C000020A2
:1018F000667B964038000020300000204000002029
:101900000000444010B50121044800F03DF918B131
:101910000121024800F010F810BD0000000800404E
:1019200021B1028842F08002028004E002884FF672
:101930007F731A4002807047CA430282704721B108
:10194000028842F00102028004E002884FF6FE7332
:101950001A4002807047000010B50446684884426F
:1019600008D10121C014FFF77DFB0021E014FFF72F
:1019700079FBC4E0B4F1804F08D101210846FFF79C
:1019800051FB00210120FFF74DFBB8E05D48844288
:1019900008D101210220FFF745FB00210220FFF7BB
:1019A00041FBACE05848844208D101210420FFF7F4
:1019B00039FB00210420FFF735FBA0E053488442A7
:1019C00008D101210820FFF72DFB00210820FFF797
:1019D00029FB94E04E48844208D101211020FFF7F2
:1019E00021FB00211020FFF71DFB88E049488442BD
:1019F00008D101212020FFF715FB00212020FFF74F
:101A000011FB7CE04448844208D101214014FFF7D7
:101A100029FB00216014FFF725FB70E03F4884425A
:101A200009D10121C804FFF71DFB00214FF400205C
:101A3000FFF718FB63E03A48844209D10121080509
:101A4000FFF710FB00214FF48010FFF70BFB56E06F
:101A50003448844209D101214805FFF703FB0021E6
:101A60004FF40010FFF7FEFA49E02F48844208D1F6
:101A700001214020FFF7D6FA00214020FFF7D2FADB
:101A80003DE02A48844208D101218020FFF7CAFAAC
:101A900000218020FFF7C6FA31E02548844208D1B2
:101AA00001218015FFF7BEFA0021A015FFF7BAFA51
:101AB00025E02048844209D101210804FFF7D2FA29
:101AC00000214FF48030FFF7CDFA18E01A48844225
:101AD00009D101214804FFF7C5FA00214FF4003075
:101AE000FFF7C0FA0BE01548844208D101218804B1
:101AF000FFF7B8FA00214FF48020FFF7B3FA10BDCA
:101B0000002C01400004004000080040000C004090
:101B1000001000400014004000340140004C01401F
:101B2000005001400054014000180040001C0040DB
:101B300000200040004001400044014000480140B6
:101B4000F0B50C4615461E460021002200230189EF
:101B5000028B038C4FF6F877394021434FF6FC4750
:101B60003A4040F201173A434FF6DD773B404FF6DB
:101B7000FF7707EA06172F433B4301810283038463
:101B8000F0BD0146888C704730B502460020002326
:101B90000024158A05EA0103958905EA010413B1B9
:101BA0000CB1012000E0002030BD000070B50546FA
:101BB0000C46244885420ED0234885420BD0B5F10F
:101BC000804F08D02148854205D02148854202D067
:101BD0002048854200D100E000BF208850B9238909
:101BE000A28861882846FFF7C5FCE188284600F0F6
:101BF000FAF825E0208804280AD12389A288618880
:101C00002846FFF7F7FCE188284600F0F5F817E0D2
:101C1000208808280AD12389A28861882846FFF7EE
:101C200035FDE188284600F0F4F809E02389A28810
:101C300061882846FFF772FDE188284600F0F2F837
:101C400070BD0000002C0140003401400004004041
:101C500000080040000C004000210180418001216B
:101C600081800021C180018170471AB183890B43B3
:101C7000838102E083898B438381704770B50024A0
:101C800000220023058C4FF6FE7635400584028C39
:101C90008388048B4FF68F752C40B51E2C400D8821
:101CA0002C43751E2A400D892A434D882A43144D22
:101CB000A8420BD0134DA84208D0134DA84205D01E
:101CC000124DA84202D0124DA84213D14FF6F7751B
:101CD0002A404D892A434FF6FB752A408D882A43B6
:101CE0004FF6FF652B404FF6FF552B408D892B4358
:101CF000CD892B4383800483CD888586028470BD83
:101D0000002C0140003401400040014000440140EB
:101D1000004801400A460021018B4FF6F773194035
:101D2000114301837047000070B500240022002396
:101D3000058C4FF6FF6635400584028C8388848BC2
:101D40004FF68F752C404FF6FC752C400D882C43B8
:101D50004FF6FF552A400D894FF6FF7606EA052516
:101D60002A434D8806EA05252A43154DA84202D08C
:101D7000144DA8421DD14FF2FF752A404D894FF6F0
:101D8000FF7606EA05252A434FF6FF352A408D885F
:101D900006EA05252A434EF6FF752B404DF6FF75E2
:101DA0002B408D8906EA05152B43CD8906EA0515DA
:101DB0002B4383808483CD888587028470BD000097
:101DC000002C0140003401400A460021818B4FF66F
:101DD000F77319401143818370478186704781876B
:101DE000704781847047028B4FF6F3731A40028369
:101DF000028B0A4302837047028B4FF2FF331A4073
:101E00000283028B4FF6FF7303EA01231A43028316
:101E10007047828B4FF6F3731A408283828B0A439A
:101E200082837047828B4FF2FF331A408283828B0A
:101E30004FF6FF7303EA01231A43828370470000C1
:101E4000002202881D4B98420ED01D4B98420BD0A9
:101E5000B0F1804F08D01B4B984205D01A4B9842E6
:101E600002D01A4B984204D14FF68F731A404B8818
:101E70001A43174B984207D0164B984204D04FF69E
:101E8000FF431A40CB881A4302808B8883850B88D6
:101E900003850A4B98420BD0094B984208D00E4B51
:101EA000984205D00D4B984202D00D4B984201D17B
:101EB0000B7A03860123838270470000002C0140C7
:101EC000003401400004004000080040000C0040C5
:101ED0000010004000140040004001400044014058
:101EE000004801404FF6FF71818000210180C180D0
:101EF00041800172704700001FB501210220FFF7E9
:101F000081F80020ADF806002320ADF8040040F26F
:101F1000E730ADF808000020ADF80A0001A90D482F
:101F2000FFF78EFF012211460A48FFF79EFE0121AE
:101F30000848FFF704FD1D208DF8000002208DF8F1
:101F4000010001208DF802008DF803006846FFF7BC
:101F500005F81FBD0004004010B540F225510A48A5
:101F600000F047F870B1084800F0DAF80749087047
:101F700008460178044800F04BFD40F22551024824
:101F800000F006F810BD0000003801408C00002071
:101F900010B50022002340F66A14A14200D100BF10
:101FA0000A1201249440A3B2DC43048010BD21B185
:101FB000828942F40052828104E082894DF6FF73E7
:101FC0001A40828170471AB1838A0B43838202E0F0
:101FD000838A8B438382704702460020B1F5007FDD
:101FE00000D100BF13880B400BB1012000E000209E
:101FF000704770B50246002400230025002040F6FB
:102000006A16B14200D100BFC1F3421501F01F03AF
:10201000012606FA03F3012D02D19689334006E02A
:10202000022D02D1168A334001E0968A33400C1209
:10203000012606FA04F41688344013B10CB10120CD
:1020400000E0002070BD00002DE9F04786B0054695
:102050000E460024A24600BFA1460027B08900B169
:1020600000BF2F462C8A4CF6FF700440F0880443D2
:102070002C82AC894EF6F3100440B08831890843B5
:10208000718908430443AC81AC8A4FF6FF40044099
:10209000B0890443AC8201A8FEF7F4FF1F488742D1
:1020A00002D1DDF810A001E0DDF80CA0A88900F451
:1020B000004040B10AEBCA0000EB0A103168490049
:1020C000B0FBF1F807E00AEBCA0000EB0A10316838
:1020D0008900B0FBF1F86420B8FBF0F0040120099E
:1020E000642101FB1089A88900F4004040B132202E
:1020F00000EBC900B0FBF1F000F00700044308E07A
:10210000322000EB09106421B0FBF1F000F00F0069
:1021100004432C8106B0BDE8F08700000038014080
:1021200001468888C0F308007047C1F30802828026
:10213000704700BFFEE7000000B585B00121C8046C
:10214000FEF760FF4FF4E13001900020ADF8080089
:10215000ADF80A00ADF80C00ADF810000C20ADF899
:102160000E0001A90F48FFF76FFF012240210D4823
:10217000FFF729FF01210B48FFF719FF4FF4A0607B
:10218000FEF724FF34208DF8000001208DF80100B7
:102190008DF802008DF803006846FEF7DFFE05B0FB
:1021A00000BD0000004C004008B501211420FEF7DE
:1021B00049FF4FF48060ADF8000018208DF803004F
:1021C00003208DF8020069460748FEF73BFD4FF4F7
:1021D0000060ADF8000004208DF803006946024855
:1021E000FEF730FD08BD00000010014010B5FFF7FC
:1021F000DBFFFFF7A1FFFEF739FB10BD2DE9F0472C
:10220000044600250026A9460027D4E90001451A06
:10221000A0682E1A20694719A560E66027611A4850
:102220000068854207DA184800684042854202DDAE
:10223000206A606211E03846FEF786F98246A1699D
:10224000FDF7C8FF8046FEF799F9616901FB0500BB
:10225000E16901FB0600401060620C49606A096890
:10226000884203DB09480068606207E00849606A49
:102270000968884202DC064800686062606A206281
:10228000606ABDE8F087000078000020640000204C
:10229000680000200021416201614160C1608160ED
:1022A000016001627047490050EAC12018BF042054
:1022B0004A0D18BF40F0010040F2FF72B2EB515FCF
:1022C00008BF40F00200012808BF05207047000049
:1022D0002DE9F74F144694B00021C4E90211159975
:1022E000079121F00045C9498D4206DC1599C4E9E2
:1022F000000117B00020BDE8F08FC549DFF814A336
:10230000A9423CDD0799C44E0029C44FC44A15991F
:10231000534619DDFEF731F8554506D0C14AC24B88
:10232000FEF72BF8C4E900010AE04FF0D352BE4B90
:10233000FEF723F832463B46FEF71FF8C4E90001DA
:1023400017B00120BDE8F08FFDF776FF554506D0A8
:10235000B44AB54BFDF770FFC4E900010AE04FF045
:10236000D352B14BFDF768FF32463B46FDF764FFA1
:10237000C4E9000117B04FF0FF30BDE8F08FAB4962
:10238000A942159978DB21F0004183468846A84A86
:10239000A84BFDF7F8FF0022A74BFDF74DFFFEF716
:1023A00045FA0990FEF7D9F806460F469C4A53466F
:1023B000FDF7E9FF43465A46FDF7E2FF80468A46AD
:1023C000984A994B30463946FDF7DDFF2A0D012525
:1023D0000B9242465346FDF7D3FF032DC4E900019B
:1023E00039D00B98C1F30A51401A05EB4511113948
:1023F000814230DA9148C346784400EB0510CDF8AD
:102400000CA00C90D0E9002330463946FDF7BBFF05
:1024100002460B460491069058460399FDF7ADFF1E
:1024200080468A4602460B4658460399FDF7A5FFAB
:10243000049B069AFDF7A1FF83460C980391394649
:10244000D0E902233046FDF79EFF5A46039BFDF775
:1024500094FF6D1CBDE707980028A2BF099817B02C
:10246000BDE8F08F616881F000416160099817B0A4
:102470004042BDE8F08FFFE784461598C1F3130191
:10248000C0F30A50A0F2F5304FEA601800F01F06C2
:10249000C6F12000139000200690079041F4801EA2
:1024A00005206D4676B1664A08EB00017A4452F881
:1024B000213002EB8101B3404A68139922FA01F1FD
:1024C000194305E05F4908EB0002794451F82210F6
:1024D000A1FB0E27A1FB0C131A449A4234BF01231F
:1024E000002303EB070A05EB8003D3E901B70F4490
:1024F0008F4234BF0121002193448B4411B1934595
:1025000002D903E0934501D2012100E00021C3E993
:1025100001B7514445F82010011EA0F10100C1DCB3
:102520000298059F00F10050800F12900298DDE99B
:1025300003568000FEF711F8834628460D91FEF7FA
:1025400068F96FF01D02FEF74DF9CDE90E01304636
:10255000FEF75FF96FF03D02FEF744F980468A46C8
:102560003846FEF756F96FF05D02FEF73BF9074675
:10257000424653461191FDF75FFEDDE90E23FDF75C
:102580005BFE5A460D9BFDF757FE00250E465A4648
:1025900028460D9BFDF7F1FEDDE90E23FDF7EDFE6C
:1025A00042465346FDF7E9FE3A46119BFDF7E8FE29
:1025B000DFF898A0244A5346FDF7E5FE0746884613
:1025C000234A244B31462846FDF7DDFE3A46434672
:1025D000FDF732FE074688464FF0A8425346314683
:1025E0002846FDF7D0FE3A464346FDF725FE159AEC
:1025F00012F0004F04D0129A81F000415242129220
:10260000C4E90001129817B0BDE8F08FFB21E93F43
:102610007CD90240FB21F93F7370032E8A19A33B3A
:10262000000040543163621A61B4D03DFB2139414E
:1026300083C8C96D305FE43F0000E03F0C08000034
:10264000880700006A070000182D4454FB21F93D5B
:102650003326A611460B113C2DE9FF4D21F0004811
:1026600007460C46B8F1795F08DAFEF7DFF8002874
:1026700001BF0020324904B0BDE8F08D3A46234640
:1026800010461946FDF77FFE054602462D480E46C8
:102690000B460621784400F05DF82A463346FDF7E4
:1026A00072FEDDE9022382468B4638462146FDF75D
:1026B0006AFE04460F4652465B4628463146FDF701
:1026C00062FE22463B46FDF758FE07468A464FF01B
:1026D000FF3228463146FEF785F81B4A90450ADA54
:1026E0003A465346FDF749FE04B00022BDE8F04DDE
:1026F000134BFDF745BE154A4245A8BFA8F5001586
:102700004FF00004B8BF124D22462B46FDF735FEB0
:102710000646884622462B4600200949FDF72DFE35
:1027200004460D463A46534630464146FDF725FEDF
:1027300004B022462B46BDE8F04DFDF721BE000057
:102740000000F03F400500003333D33F0000E93F75
:102750000000D23F2DE9F0414F1E00EBC7010446B7
:10276000D1E9000115461E4637F006020DD02A4673
:102770003346FDF708FE7F1E04EBC703D3E90023B1
:10278000FDF75AFD37F00602F1D1022F25D0042FB4
:1027900013D0062F18BFBDE8F0812A463346FDF757
:1027A000F2FDD4E90A23FDF747FD2A463346FDF73B
:1027B000EAFDD4E90823FDF73FFD2A463346FDF73D
:1027C000E2FDD4E90623FDF737FD2A463346FDF73F
:1027D000DAFDD4E90423FDF72FFD2A463346FDF741
:1027E000D2FDD4E90223FDF727FD2A463346FDF743
:1027F000CAFDD4E90023BDE8F041FDF71DBD00008E
:102800002DE9FF4D054621F0004084B00C46B0F1A3
:10281000795F0BDA2846FFF746FD042808BF00F071
:102820006FF8284608B02146BDE8F08D2A460B46D1
:102830001046FDF7A8FD06460F462A462346FDF73B
:10284000A2FD804626488A4632463B46052178440A
:10285000FFF780FF83461098029160B3214A224B14
:1028600040465146FDF78FFDCDE900015A464046EE
:102870005146029BFDF787FD82468846DDE9060149
:102880004FF0FF32FDF7AEFF52464346FDF775FDB0
:1028900032463B46FDF777FDDDE90623FDF76DFD8A
:1028A000DDE90023FDF769FD08B02A462346BDE8AF
:1028B000F04DFDF765BD0B465A4630463946FDF7EB
:1028C00062FD084A084BFDF7B7FC42465346FDF748
:1028D0005AFD08B02A462346BDE8F04DFDF7ACBCD2
:1028E0007E040000495555555555C5BF0122FDF7D9
:1028F00079BF0022134610461146FDF7B6BD000011
:10290000024A00201107FDF76DBF000001FDFFFF27
:1029100002E008C8121F08C1002AFAD170477047A8
:10292000002001E001C1121F002AFBD17047000006
:102930000149086070470000C000002000B5244B2A
:1029400021F0004287B09A42DCBF0022134629DD05
:10295000204B9A4208D140B94FF00100FFF7E8FF41
:10296000FFF7C7FF07B000BD03DBFFF7BFFF07B0EE
:1029700000BD02AAFFF7ACFC10F0030104BF0DF18B
:10298000080C9CE80F000DD0012001290ED002296F
:1029900014D00DF1080C00909CE80F00FFF730FFF9
:1029A00007B000BDFFF758FE07B000BD0DF1080CE1
:1029B00000909CE80F00FFF723FF05E00DF1080CE5
:1029C0009CE80F00FFF748FE07B081F0004100BD12
:1029D000FB21E93F0000F07F00B503200A49486170
:1029E0004FF07E5088610020C8610320074948618C
:1029F0004FF07E5088610020C8610348FFF74AFC11
:102A00000248FFF747FC00BD70010020980100203C
:102A100070B504460D4600BF40212046FFF7DCFAA2
:102A20000028F9D029462046FFF77FFB70BD000043
:102A3000FFF7D2FFFEF738FDFFF75EFAFEF7F8F971
:102A4000FEF78EF8FFF7D2FB0020FEF73DFC0020DA
:102A5000FEF758FCFEF758FD58E02D4800782D4948
:102A600008702D4800782D490870FEF7DFFCFDF74F
:102A700033FF2B480068A0B100202949086029488D
:102A800080792849C97900EB012000B226490880E5
:102A9000244800792349497900EB012000B22349F9
:102AA00008802148008880B11F4AB2F900201F4BDE
:102AB000B3F90030D11A1C4AB2F900201B4BB3F90C
:102AC0000030D018FEF704FA1DE01848008880B1E5
:102AD000154AB2F90020154BB3F90030D11A124A49
:102AE000B2F90020114BB3F90030D018FEF7F0F91D
:102AF00009E000210846FEF711FA0D48FFF7CAFB6E
:102B00000C48FFF7C7FB0A20FDF7F0FFA5E7000020
:102B100018000020BC0000201C000020BD00002088
:102B2000B0000020C9010020A8000020AA00002059
:102B3000700100209801002000B5254B21F00042D3
:102B400087B09A4203DC0022134600922BE0214B0F
:102B50009A4208D140B94FF00100FFF7E9FEFFF7B4
:102B6000C8FE07B000BD03DBFFF7C0FE07B000BD25
:102B700002AAFFF7ADFB10F003014FF001000DD0EA
:102B8000012914D002291AD00DF1080C9CE80F007D
:102B9000FFF762FD07B081F0004100BD0DF1080CA8
:102BA00000909CE80F00FFF72BFE07B000BD0DF171
:102BB000080C9CE80F00FFF74FFD07B000BD0DF1BA
:102BC000080C00909CE80F00FFF71AFEE2E70000F7
:102BD000FB21E93F0000F07F4C5555555555A53F69
:102BE0007751C1166CC156BF9015CB19A001FA3EA2
:102BF000AD529C804F7E92BEC4B1B4BD9EEE213ECC
:102C0000D43888BEE9FAA8BD00004054FB21F93F42
:102C10003163621A61B4D03D0000601A61B4D03DE6
:102C20007370032E8A19A33B0000002E8A19A33B60
:102C3000C14920259A837B39000000000000000074
:102C40006E83F9A22915444ED15727FCC0DD34F517
:102C5000999562DB4190433CAB6351FE61C5BBDE9D
:102C60003A6E24B7E0D24D42EA2E49061C92D109B1
:102C70001CEB1DFE3EA729B1F53582E88444BB2E2E
:102C800026709CE9417E5FB439D69139F43953837B
:102C90008B5F849C3B28F9BDFF97F81F0F9805DEDA
:102CA0008B112FEF1F6D0A5ACF7E366DB709CB27D8
:102CB000663F464F2DEA5F9EC7BA27757BF1E5EB6D
:102CC000F739073DEA92528AB15FFB6B085D8D1FB1
:102CD000A6F810111111813FD561C119A0012ABFB9
:102CE0007DFEB157E31DC73EEB9C2B8AE6E55ABE3D
:102CF0007CD5CF5A3AD9E53D182D000800000020B8
:102D0000C400000010290008DC2D0008C4000020C9
:102D1000140500002029000800A24A040000000059
:102D2000000000000102030406070809000000007B
:102D30000000000000000000000000000000000093
:102D40000000000000000000000000000000000083
:102D50000000000000000000000000000000000073
:102D60000000000000000000000000000000000063
:102D70000000000000000000000000000807000044
:102D8000F8F8FFFF64009CFF1400ECFF88130000BC
:102D900003000000640000000000000000000000CC
:102DA00028000000000000000000000000000000FB
:102DB00001020304010203040607080902040608CD
:102DC0000000000000000000000000000000000003
:0C2DD000000000000000FF0000000000F8
:04000005080000ED02
:00000001FF
