:020000040800F2
:100000000004002047010008F1420008F342000804
:10001000F7420008FB420008FF4200080000000011
:100020000000000000000000000000000343000882
:100030000543000800000000074300080B470008C4
:1000400067010008670100086701000867010008F0
:1000500067010008670100086701000867010008E0
:1000600067010008670100086701000867010008D0
:1000700067010008670100086701000867010008C0
:1000800067010008670100086701000867010008B0
:1000900067010008670100086701000867010008A0
:1000A0006701000867010008670100086701000890
:1000B00009430008C13300081F4300086701000816
:1000C0006701000867010008670100086701000870
:1000D00067010008D32F00086701000867010008C6
:1000E0006701000867010008670100086701000850
:1000F0006701000867010008670100086701000840
:10010000670100086701000867010008670100082F
:10011000354300086701000867010008670100080F
:10012000670100086701000867010008670100080F
:10013000DFF80CD005F0EAF800480047C14000089D
:10014000580C0020704708488047084981F3088808
:1001500007480047FEE7FEE7FEE7FEE7FEE7FEE7AB
:10016000FEE7FEE7FEE7FEE745010008580C002029
:10017000310100080CB50020019000906C48006827
:1001800040F480306A49086000BF6948006800F4A4
:10019000003000900198401C0190009818B9019817
:1001A000B0F5A06FF1D16248006800F4003010B1E2
:1001B0000120009001E0002000900098012843D128
:1001C0005C48006840F010005A4908600846006822
:1001D00020F0030008600846006840F00200086054
:1001E000534840685249486008464068486008469D
:1001F000406840F4806048600846406820F47C1005
:1002000048600846406840F4E810486008460068C6
:1002100040F08070086000BF4548006800F0007042
:100220000028F9D04248406820F003004049486067
:100230000846406840F00200486000BF3C48406803
:1002400000F00C000828F9D10CBD10B5FFF792FFA3
:1002500010BD10B53648006840F001003449086010
:1002600008464068344908403149486008460068FB
:10027000324908402E4908600846006820F4802072
:1002800008600846406820F4FE0048604FF41F00F4
:100290008860FFF7DAFF4FF000602949086010BD61
:1002A00010B5002100200022214B5B6803F00C01F7
:1002B00021B1042906D0082928D107E0214B224C7E
:1002C000236027E01F4B204C236023E0184B5B6822
:1002D00003F47010164B5B6803F48032022303EBC7
:1002E000904022B9194B4343174C23600DE0104B4B
:1002F0005B6803F4003323B1144B4343124C236077
:1003000003E0104B4343104C236003E00D4B0E4CB5
:10031000236000BF00BF064B5B68C3F303130C4CA4
:10032000E15C094B1B68CB40074C236010BD00000B
:1003300000100240002002400000FFF8FFFFF6FE20
:1003400008ED00E000127A000000002000093D00E6
:100350000400002031490143314A1160704770B5F3
:10036000002100230F22C47804B32D4C246804F428
:10037000E064C4F5E064210AC1F10403CA40447892
:1003800004FA03F18478144021430901254C0678CE
:10039000A155047804F01F050124AC4005786D11C7
:1003A000AD0005F1E025C5F8004109E0047804F04E
:1003B0001F050124AC401C4D0678761145F82640F7
:1003C00070BD1A4A0A400243154B1B1F1A60704742
:1003D00039B1134A121D12680243114B1B1D1A60DA
:1003E00006E00F4A121D126882430D4B1B1D1A6056
:1003F0007047042808D14FF0E021096941F0040159
:100400004FF0E022116107E04FF0E021096921F08F
:1004100004014FF0E0221161704700000000FA056E
:100420000CED00E000E400E080E100E080FFFF1F51
:10043000DF48006840F00100DD4908600846406878
:10044000DC490840DA49486008460068DA49084053
:10045000D74908600846006820F4802008600846F4
:10046000406820F4FE0048604FF41F008860704729
:10047000CF49096821F48031CD4A116011460968DD
:1004800021F480211160B0F5803F03D0B0F5802FBA
:100490000ED106E0C649096841F48031C44A1160B2
:1004A00007E0C349096841F4A021C14A116000E096
:1004B00000BF00BF704710B5014600220023002096
:1004C0004A11012A02D1BA4C236806E0022A02D15D
:1004D000B74C236A01E0B64C636A01F01F020124A5
:1004E00094401C400CB1012000E0002010BD38B544
:1004F000002000900024002500BF3120FFF7DBFF23
:1005000005460098401C00900098B0F5A06F01D0FF
:10051000002DF2D03120FFF7CEFF08B1012400E01A
:100520000024204638BD01460020A14A106820F072
:10053000F80040EAC10010607047A04908607047A9
:10054000024600209A4B586820F47C1042EA0103CE
:100550001843974B586070479849086670470146A2
:100560000020934A506820F0030008435060704711
:100570008F48406800F00C007047014600208C4A0C
:10058000506820F0F000084350607047014600209A
:10059000874A506820F4E060084350607047014685
:1005A0000020834A506820F4605040EAC100506047
:1005B000704729B17E4A527A02437D4B5A7204E059
:1005C0007B4A527A82437A4B5A7270477B49D831C0
:1005D0000860704701460020754A506820F440408A
:1005E0000843506070470021714A20321170704AF0
:1005F00082F82010012802D004280AD104E0012149
:100600006B4A2032117005E00521694A20321170D1
:1006100000E000BF00BF7047694908607047644947
:10062000096A0143624A11627047654944390860AA
:10063000704730B500210022002400235C4D6D6816
:1006400005F00C0121B1042905D0082923D105E0CA
:100650005C4D056022E05B4D05601FE0544D6D6808
:1006600005F47012524D6D6805F48034022505EBD7
:1006700092421CB9544D554305600BE04C4D6D68DA
:1006800005F400351DB1504D5543056002E04D4D58
:100690005543056002E04B4D056000BF00BF444D6F
:1006A0006D6805F0F0010909484D6B5C0568DD4097
:1006B00045603F4D6D6805F4E061090A434D6B5C90
:1006C0004568DD4085603A4D6D6805F46051C90AA2
:1006D0003E4D6B5C4568DD40C560354D6D6805F489
:1006E0004041890B3A4D6B5CC568B5FBF3F505617C
:1006F00030BD29B12E4A526902432D4B5A6104E0A4
:100700002B4A526982432A4B5A61704729B1284AC1
:1007100092690243264B9A6104E0254A926982431A
:10072000234B9A61704729B1214AD2690243204B79
:10073000DA6104E01E4AD26982431D4BDA617047D8
:1007400029B11B4AD2680243194BDA6004E0184A07
:10075000D2688243164BDA60704729B1144A126995
:100760000243134B1A6104E0114A12698243104B91
:100770001A61704712494039086070470F49C864D0
:1007800070470B49C87170470948406A40F0807053
:1007900007494862704701460020054A92680A40AE
:1007A0000AB1012000E000207047014988727047BB
:1007B000001002400000FFF8FFFFF6FE000042427A
:1007C0008004424200127A0000093D00140000201B
:1007D0002400002010B50446CC48844208D10121F1
:1007E0000420FFF7ADFF00210420FFF7A9FF46E03A
:1007F000C748844208D101210820FFF7A1FF00214A
:100800000820FFF79DFF3AE0C248844208D1012149
:100810001020FFF795FF00211020FFF791FF2EE039
:10082000BD48844208D101212020FFF789FF002123
:100830002020FFF785FF22E0B848844208D101213B
:100840004020FFF77DFF00214020FFF779FF16E0F1
:10085000B348844208D101218020FFF771FF0021B5
:100860008020FFF76DFF0AE0AE48844207D10121E6
:100870008015FFF765FF0021A015FFF761FF10BD90
:1008800010B501210846FFF75BFF00210120FFF7AB
:1008900057FF10BD2DE9F04102460025002600203B
:1008A00000230024002791F803C00CF00F0591F8F5
:1008B00003C00CF0100CBCF1000F03D091F802C083
:1008C0004CEA050591F800C0BCF1000F31D0146866
:1008D00000202BE04FF0010C0CFA00F3B1F800C03F
:1008E0000CEA03069E4220D183004FF00F0C0CFA55
:1008F00003F7BC4305FA03FC4CEA040491F803C077
:10090000BCF1280F06D14FF0010C0CFA00FCC2F824
:1009100014C00AE091F803C0BCF1480F05D14FF0B4
:10092000010C0CFA00FCC2F810C0401C0828D1D3FE
:100930001460B1F800C0BCF1FF0F34DD5468002032
:100940002EE000F1080C4FF0010808FA0CF3B1F8A2
:1009500000C00CEA03069E4221D183004FF00F0C29
:100960000CFA03F7BC4305FA03FC4CEA040491F8C3
:1009700003C0BCF1280F05D100F1080C08FA0CF8EF
:10098000C2F8148091F803C0BCF1480F07D100F100
:10099000080C4FF0010808FA0CF8C2F81080401C4F
:1009A0000828CED35460BDE8F0814FF6FF71018076
:1009B000022181700421C1707047024600209368B3
:1009C0000B400BB1012000E0002070470146886811
:1009D00080B2704702460020D3680B400BB1012063
:1009E00000E0002070470146C86880B2704701618E
:1009F0007047416170470AB1016100E04161704791
:100A0000C16070474FF480320A4382618161826124
:100A100082698269704702460020434B18684FF68E
:100A20008073184040EA021008433F4B186070473B
:100A30003E49C8617047F0B50A46002300240021F2
:100A4000002500F00046B6F1004F02D1364EF169A4
:100A500001E0354E7168C0F3034583B200F44016DF
:100A6000B6F5401F08D121F070612F4E766826F050
:100A700070662D4F7E6012E000F48016B6F5801F80
:100A800006D1032606FA05F4A14341F0706106E0A1
:100A9000460D360103FA06F6B14341F0706122B10A
:100AA000460D360103FA06F6314300F00046B6F172
:100AB000004F02D11C4EF16101E01B4E7160F0BD90
:100AC00030B500228B071C0F0F2303FA04F2164BDC
:100AD00008338C1053F824309343134C08348D1092
:100AE00044F8253023468C1053F824308C07240F0B
:100AF00000FA04F423430C4C08348D1044F82530DC
:100B000030BD0A49DC310860704700000008014030
:100B1000000C014000100140001401400018014089
:100B2000001C014000200140000001400000204264
:100B300001684FF6FE7211400160002101604160C2
:100B40008160C1608D49884208D18C490839496863
:100B500041F00F01894A083A51608AE0874914310F
:100B6000884208D185490839496841F0F001834A33
:100B7000083A51607DE081492831884208D17F4997
:100B80000839496841F470617C4A083A516070E064
:100B90007A493C31884208D178490839496841F49A
:100BA0007041764A083A516063E074495031884296
:100BB00008D172490839496841F470216F4A083AEE
:100BC000516056E06D496431884208D16B4908395B
:100BD000496841F47001694A083A516049E067493F
:100BE0007831884208D165490839496841F0706117
:100BF000624A083A51603CE06149884206D1011FCF
:100C0000096841F00F01021F116032E05C491431A4
:100C1000884208D15A49091F096841F0F001584A31
:100C2000121F116025E056492831884208D15449E5
:100C3000091F096841F47061514A121F116018E0E0
:100C40004F493C31884208D14D49091F096841F498
:100C500070414B4A121F11600BE0494950318842E4
:100C600007D14749091F096841F47021444A121FFE
:100C70001160704710B50022026847F6F0739A437E
:100C80000C6A8B6823430C6923434C6923438C69AA
:100C90002343CC6923434C6A23438C6A23431A437E
:100CA0000260CB6843600B6883604B68C36010BD13
:100CB0000021016041608160C16001614161816129
:100CC000C161016241628162704721B1026842F0F4
:100CD0000102026004E002684FF6FE731A400260EF
:100CE00070471AB103680B43036002E003688B434B
:100CF00003607047416070470146486880B27047A2
:100D000001460020002201F080531BB11C4B083B20
:100D10001A6802E0194B083B1A6802EA01030BB19A
:100D2000012000E00020704700F0805119B1144903
:100D3000091F086002E01149083948607047014600
:100D40000020002201F080531BB10D4B083B1A68B4
:100D500002E00A4B083B1A6802EA01030BB10120CA
:100D600000E00020704700F0805119B10449091FCC
:100D7000086002E0014908394860704708000240F5
:100D80000804024010B50446FB48844209D1012101
:100D90008803FFF7D5FC00214FF48040FFF7D0FC1B
:100DA00032E0F648844209D101214804FFF7D5FC1E
:100DB00000214FF40030FFF7D0FC25E0F0488442DA
:100DC00009D101218804FFF7C8FC00214FF48020DD
:100DD000FFF7C3FC18E0EB48844209D10121C804A5
:100DE000FFF7BBFC00214FF40020FFF7B6FC0BE03F
:100DF000E548844208D101210805FFF7AEFC002137
:100E00004FF48010FFF7A9FC10BD2DE9F04786B024
:100E100005460E460024A24600BFA1460027B08921
:100E200000B100BF2F462C8A4CF6FF700440F088BA
:100E300004432C82AC894EF6F3100440B08831890B
:100E40000843718908430443AC81AC8A4FF6FF40E4
:100E50000440B0890443AC8201A8FFF7EAFBC6480E
:100E6000874202D1DDF810A001E0DDF80CA0A889CE
:100E700000F4004040B10AEBCA0000EB0A103168F0
:100E80004900B0FBF1F807E00AEBCA0000EB0A10DA
:100E900031688900B0FBF1F86420B8FBF0F0040180
:100EA0002009642101FB1089A88900F4004040B1A9
:100EB000322000EBC900B0FBF1F000F00700044362
:100EC00008E0322000EB09106421B0FBF1F000F0E3
:100ED0000F0004432C8106B0BDE8F0874FF4165193
:100EE000016000218180C18001810C2141810021AC
:100EF0008181704710B502460020108A4FF2FF032F
:100F000018400B884C8823438C882343CC88234388
:100F10001843108210BD0021018041808180C18072
:100F2000704721B1828942F40052828104E08289B3
:100F30004DF6FF731A4082817047F0B503460024D6
:100F400000260025002040F66A17B94200D100BFF4
:100F50001846C1F3421401F01F06012707FA06F5EF
:100F6000012C01D10C3004E0022C01D1103000E042
:100F700014301AB107682F43076002E00768AF43D7
:100F80000760F0BD1AB1838A0B43838202E0838A33
:100F90008B4383827047028A4FF6F0731A400282B5
:100FA000028A0A430282704782894FF2FF731A4015
:100FB000828182890A438281704721B1828942F00D
:100FC0000202828104E082894FF6FD731A40828119
:100FD0007047028A4FF6DF731A400282028A0A4380
:100FE0000282704721B1028A42F48042028204E008
:100FF000028A4BF6FF731A4002827047C1F308025F
:101000008280704701468888C0F308007047818954
:1010100041F0010181817047028BD2B20283028BC1
:1010200042EA012202837047028B02F47F4202836C
:10103000028B0A430283704721B1828A42F0200268
:10104000828204E0828A4FF6DF731A408282704700
:1010500021B1828A42F01002828204E0828A4FF635
:10106000EF731A408282704721B1828A42F00802EF
:10107000828204E0828A4FF6F7731A4082827047B8
:1010800021B1828942F40042828103E08289C2F365
:101090000E028281704721B1828A42F4006282820C
:1010A00004E0828A4FF2FF731A4082827047828A7C
:1010B0004FF6FB731A408282828A0A43828270470B
:1010C00021B1828A42F00202828204E0828A4FF6D3
:1010D000FD731A408282704702460020B1F5007FFE
:1010E00000D100BF13880B400BB1012000E00020AD
:1010F000704701F40072B2F5007F00D100BFCA430F
:101100000280704770B502460024002300250020AD
:1011100040F66A16B14200D100BFC1F3421501F09A
:101120001F03012606FA03F3012D02D196893340ED
:1011300006E0022D02D1168A334001E0968A334040
:101140000C12012606FA04F41688344013B10CB1CF
:10115000012000E0002070BD10B50022002340F601
:101160006A14A14200D100BF0A1201249440A3B224
:10117000DC43048010BD0000003801400044004002
:1011800000480040004C00400050004010B50446AC
:10119000FA48844208D101214015FFF7D1FA002115
:1011A0006015FFF7CDFA17E0F548844208D1012118
:1011B0000015FFF7C5FA00212015FFF7C1FA0BE073
:1011C000F048844208D10121C803FFF7B9FA002191
:1011D0004FF40040FFF7B4FA10BD30B502460020CE
:1011E00000235068E84C20400D790C6844EA05243F
:1011F000204350609068E54C2040D1E902542C43D4
:101200004D7944EA450420439060D06A20F4700090
:101210000C7C641EE4B2234340EA0350D06230BD2C
:1012200000210160017141718160C160012101747F
:10123000704721B1826842F00102826003E0826857
:1012400022F001028260704721B1826842F480720C
:10125000826003E0826822F480728260704710B579
:101260000023CBB21AB144681C43446002E04468D6
:101270009C43446010BD816841F008018160704763
:10128000014600208A6802F008020AB1012000E04D
:1012900000207047816841F0040181607047014679
:1012A00000208A6802F004020AB1012000E0002058
:1012B000704721B1826842F4A002826003E0826834
:1012C00022F4A00282607047014600208A6802F47E
:1012D00080020AB1012000E00020704710B50A46E4
:1012E00000210023416821F46041531E41EA43314B
:1012F000416010BD21B1426842F40062426003E0E7
:10130000426822F4006242607047F0B504460D4620
:1013100000200021092D11DDE068A5F10A0606EB89
:101320004607072606FA07F18843A5F10A0606EBE9
:10133000460603FA06F10843E0600CE0206905EB7D
:101340004507072606FA07F1884305EB450603FA29
:1013500006F108432061072A0FDA606B561E06EB80
:1013600086071F2606FA07F18843561E06EB8606F7
:1013700005FA06F10843606322E00D2A0FDA206BBC
:10138000D61F06EB86071F2606FA07F18843D61FED
:1013900006EB860605FA06F10843206310E0E06AD2
:1013A000A2F10D0606EB86071F2606FA07F1884311
:1013B000A2F10D0606EB860605FA06F10843E06287
:1013C000F0BD21B1826842F48012826003E082683D
:1013D00022F48012826070470146C86C80B2704768
:1013E00066484C300068704721B1426842F4806220
:1013F000426003E0426822F480624260704721B19B
:10140000426842F48052426003E0426822F4805213
:10141000426070470A460021816821F4E04111438F
:101420008160704721B1826842F40042826003E02B
:10143000826822F400428260704721B1826842F4DF
:101440000212826003E0826822F402128260704716
:10145000014600208A6802F400120AB1012000E06F
:1014600000207047F0B504461546002000220026F3
:10147000092911DDE068A1F10A0707EB470C0727EE
:1014800007FA0CF29043A1F10A0707EB470703FAAA
:1014900007F21043E0600CE0206901EB410C0727E4
:1014A00007FA0CF2904301EB410703FA07F21043ED
:1014B0002061A06BC0F30156EF1C06F1010CA7EBF5
:1014C0000C0707EB870C1F2707FA0CF29043EF1C61
:1014D00006F1010CA7EB0C0707EB870701FA07F2EF
:1014E0001043A063F0BD10B50A4600210023816BB4
:1014F00021F44011531E41EA0351816310BD08B528
:10150000002300930090009B0B440093009B1A6003
:1015100008BD08B5024600200090009201F12800A5
:10152000009B184400900098006880B208BD0A46ED
:1015300000214168164B19401143416070474162D8
:10154000826270470A460021416821F01F01114361
:101550004160704740B109490831096841F4000110
:10156000064A0832116007E004490831096821F48D
:101570000001024A08321160704700000024014057
:1015800000280140003C0140FFFEF0FFFDF7F1FFA5
:10159000FFFD3FFF0246002013680B400BB1012006
:1015A00000E000207047CA430260704770B50246F1
:1015B0000020002300240B125568CEB205EA060471
:1015C00015681D4015B10CB1012000E0002070BD70
:1015D00000220A12D34303607047000010B504468E
:1015E000FE48844208D10121C014FFF7A9F8002168
:1015F000E014FFF7A5F8C4E0B4F1804F08D1012151
:101600000846FFF7AAF800210120FFF7A6F8B8E086
:10161000F348844208D101210220FFF79EF80021FF
:101620000220FFF79AF8ACE0EE48844208D101218D
:101630000420FFF792F800210420FFF78EF8A0E0C5
:10164000E948844208D101210820FFF786F80021EB
:101650000820FFF782F894E0E448844208D1012191
:101660001020FFF77AF800211020FFF776F888E0C5
:10167000DF48844208D101212020FFF76EF80021C5
:101680002020FFF76AF87CE0DA48844208D1012183
:101690004014FFF755F800216014FFF751F870E08F
:1016A000D548844209D10121C804FFF749F8002137
:1016B0004FF40020FFF744F863E0D048844209D19A
:1016C00001210805FFF73CF800214FF48010FFF7D7
:1016D00037F856E0CA48844209D101214805FFF78E
:1016E0002FF800214FF40010FFF72AF849E0C54811
:1016F000844208D101214020FFF72FF8002140202B
:10170000FFF72BF83DE0C048844208D1012180203A
:10171000FFF723F800218020FFF71FF831E0BB48D6
:10172000844208D101218015FFF717F80021A01588
:10173000FFF713F825E0B648844209D101210804D7
:10174000FEF7FEFF00214FF48030FEF7F9FF18E0AE
:10175000B048844209D101214804FEF7F1FF00217D
:101760004FF40030FEF7ECFF0BE0AB48844208D1A9
:1017700001218804FEF7E4FF00214FF48020FEF7EA
:10178000DFFF10BD00220288944B98420ED0994B87
:1017900098420BD0B0F1804F08D0914B984205D0C1
:1017A000904B984202D0904B984204D14FF68F73E1
:1017B0001A404B881A438D4B984207D08C4B984265
:1017C00004D04FF6FF431A40CB881A4302808B881F
:1017D00083850B880385814B98420BD0854B9842BB
:1017E00008D08B4B984205D08A4B984202D08A4B46
:1017F000984201D10B7A038601238382704770B52A
:10180000002400220023058C4FF6FE763540058427
:10181000028C8388048B4FF68F752C40B51E2C40AC
:101820000D882C43751E2A400D892A434D882A4372
:101830006A4DA8420BD06F4DA84208D0744DA84203
:1018400005D0744DA84202D0734DA84213D14FF673
:10185000F7752A404D892A434FF6FB752A408D883B
:101860002A434FF6FF652B404FF6FF552B408D89DD
:101870002B43CD892B4383800483CD8885860284C6
:1018800070BD70B5002400220023058C4FF6EF7662
:1018900035400584028C8388048B48F6FF752C4004
:1018A0004FF6FF452C400D884FF6FF7606EA0525DA
:1018B0002C434FF6DF752A400D8906EA05152A43A9
:1018C0004D8806EA05152A43444DA84202D0494DE9
:1018D000A8421DD14FF67F752A404D894FF6FF76FD
:1018E00006EA05152A434FF6BF752A408D8806EA99
:1018F00005152A434FF6FF352B404FF2FF752B405D
:101900008D8906EA85052B43CD8906EA85052B439B
:1019100083800483CD880587028470BD70B5002460
:1019200000220023058C4FF6FF6635400584028CAB
:101930008388848B4FF68F752C404FF6FC752C40B6
:101940000D882C434FF6FF552A400D894FF6FF7640
:1019500006EA05252A434D8806EA05252A431F4D38
:10196000A84202D0234DA8421DD14FF2FF752A4054
:101970004D894FF6FF7606EA05252A434FF6FF35D7
:101980002A408D8806EA05252A434EF6FF752B402E
:101990004DF6FF752B408D8906EA05152B43CD8941
:1019A00006EA05152B4383808483CD8885870284CE
:1019B00070BD70B5002200230024058C4EF6FF7622
:1019C00035400584038C8488828B48F6FF752A4055
:1019D0004FF6FF452A400D8820E00000002C014012
:1019E0000004004000080040000C004000100040CF
:1019F0000014004000340140004C01400050014000
:101A00000054014000180040001C0040002000402D
:101A10000040014000440140004801404FF6FF767D
:101A200006EA05252A434DF6FF752B400D8906EA87
:101A300005352B434D8806EA05352B43FA4DA84260
:101A400002D0FA4DA84208D14BF6FF752C408D8983
:101A50004FF6FF7606EA85152C4384808283CD8875
:101A6000A0F84050038470BD828B4FF2FF331A40C0
:101A70008283828B4FF6FF7303EA01231A4382832A
:101A80007047F0B50C461546002200210026078C51
:101A90004EF6FF7C07EA0C070784828B018C4FF619
:101AA000FF7707EA043640F6FF473A404FF6FF77E4
:101AB00007EA05273A434FF6FF7707EA03373A4329
:101AC000D94FB8420ED0D94FB8420BD0B0F1804FA9
:101AD00008D0D74FB84205D0D64FB84202D0D64F23
:101AE000B84206D14DF6FF77394046F48057394366
:101AF00005E047F6FF57394044F480573943828365
:101B00000184F0BD828B4FF6F3731A408283828B7F
:101B10000A4382837047F0B50C4615460022002127
:101B20000026078C4FF6FF6C07EA0C070784828BB0
:101B3000018C4FF6FF7707EA04264FF60C773A4000
:101B40004FF6FF7707EA03172F433A43B64FB842E1
:101B50000ED0B64FB8420BD0B0F1804F08D0B44F82
:101B6000B84205D0B34FB84202D0B34FB84206D105
:101B70004FF6FF57394046F48077394305E04FF27E
:101B8000FF57394044F48077394382830184F0BDA4
:101B9000028B4FF2FF331A400283028B4FF6FF7322
:101BA00003EA01231A4302837047F0B50C46154639
:101BB000002200210026078C4FF6EF7C07EA0C0775
:101BC0000784028B018C4FF6FF7707EA041640F674
:101BD000FF473A404FF6FF7707EA03373A434FF69D
:101BE000FF7707EA05273A438F4FB8420ED08F4F51
:101BF000B8420BD0B0F1804F08D08D4FB84205D01D
:101C00008C4FB84202D08C4FB84206D14FF6DF77E6
:101C1000394046F01007394305E04FF65F77394009
:101C200044F01007394302830184F0BD028B4FF664
:101C3000F3731A400283028B0A4302837047F0B5A4
:101C40000C46154600220021068C4FF6FE773E40DA
:101C50000684028B018C4FF60C7632407E1C06EA1D
:101C600003162E433243704EB0420ED06F4EB04238
:101C70000BD0B0F1804F08D06D4EB04205D06D4E04
:101C8000B04202D06C4EB04206D14FF6FD763140E4
:101C900044F00106314305E04FF6F576314044F05B
:101CA0000106314302830184F0BD70B505460C4640
:101CB0005D4885420ED05D4885420BD0B5F1804F1E
:101CC00008D05B48854205D05A48854202D05A4820
:101CD000854200D100E000BF208850B92389A28846
:101CE00061882846FFF7ABFFE1882846FFF79EFF93
:101CF00025E0208804280AD12389A2886188284603
:101D0000FFF753FFE1882846FFF742FF17E02088DE
:101D100008280AD12389A28861882846FFF7FBFE9C
:101D2000E1882846FFF7EEFE09E02389A288618852
:101D30002846FFF7A6FEE1882846FFF795FE70BD0E
:101D40002DE9F04105460C4600260127608808B9B8
:101D5000022600E00026A088012801D1022700E029
:101D600001272088A0B92389A28861882846FFF727
:101D700066FFE1882846FFF759FF23893A46314636
:101D80002846FFF712FFE1882846FFF701FF13E01E
:101D90002389A28861882846FFF707FFE188284643
:101DA000FFF7F6FE23893A4631462846FFF747FFFC
:101DB000E1882846FFF73AFFBDE8F0810A884B88A2
:101DC0001A438B881A43CB881A430B891A434B89D1
:101DD0001A438B891A43A0F8442070474FF6FF71CD
:101DE000818000210180C180418001727047002103
:101DF000018041808180C180018141818181C181D7
:101E00007047002101804180012181800021C18033
:101E1000018170470021018041808180C180018162
:101E20004181818170470000002C01400034014055
:101E30000004004000080040000C004021B102886E
:101E400042F00102028004E002884FF6FE731A405D
:101E50000280704731B1B0F8442042F40042A0F84B
:101E6000442005E0B0F84420C2F30E02A0F844205C
:101E700070471AB183890B43838102E083898B43C6
:101E8000838170478182704741EA0203A0F848309D
:101E900070471AB183890B43838102E083898B43A6
:101EA0008381704701894FF6F872114001817047B4
:101EB0000A46002101894FF68F73194011430181B1
:101EC000704730B504460D4629462046FFF7F0FF1F
:101ED000208940F00700208130BD2DE9F041044603
:101EE0000D4616461F46602D06D13B46012231465F
:101EF0002046FFF75AFE05E03B46012231462046C8
:101F0000FFF79DFE29462046FFF7D2FF208940F0CB
:101F100007002081BDE8F08130B50C460021018921
:101F2000C9B24FF6FF7505EA03251543254329433A
:101F3000018130BD2DE9F04105460E461746984611
:101F4000002443463A4631462846FFF7E5FF2C89F0
:101F50004FF6F870044044F007044FF68F700440C9
:101F600044F070042C81BDE8F081F0B504460D46C4
:101F700016461F463B46324629462046FFF7CCFF11
:101F8000208940F480402081F0BD01858282704725
:101F90000A46002101884FF68F73194011430180D2
:101FA0007047F0B50C4615461E460021002200235E
:101FB0000189028B038C4FF6F877394021434FF6A5
:101FC000FC473A4040F201173A434FF6DD773B4079
:101FD0004FF6FF7707EA06172F433B430181028341
:101FE0000384F0BD0A460021018B4FF68F73194020
:101FF0001143018370470A460021018B48F6FF73A5
:1020000019404FF6FF7303EA022319430183704717
:102010000A460021818B4FF68F731940114381834B
:1020200070470A460021818B48F6FF7319404FF62E
:10203000FF7303EA022319438183704721B10288A9
:1020400042F08002028004E002884FF67F731A405B
:102050000280704721B1828842F00402828004E04D
:1020600082884FF6FB731A408280704721B18288C4
:1020700042F00802828004E082884FF6F7731A402B
:102080008280704721B1828842F00102828004E0A0
:1020900082884FF6FE731A40828070470A460021FC
:1020A000018B4FF6F77319401143018370470A46BD
:1020B0000021018B4FF2FF7319404FF6FF7303EAC3
:1020C00002231943018370470A460021818B4FF692
:1020D000F77319401143818370470A460021818BB1
:1020E0004FF2FF7319404FF6FF7303EA02231943BF
:1020F000818370470A460021018B4FF6FB7319401C
:102100001143018370470A460021018B4FF6FF33CC
:1021100019404FF6FF7303EA022319430183704706
:102120000A460021818B4FF6FB73194011438183CE
:1021300070470A460021818B4FF6FF3319404FF656
:10214000FF7303EA02231943818370470A46002183
:10215000018B4FF67F7319401143018370470A4684
:102160000021018BC1F30E014FF6FF7303EA022336
:102170001943018370470A460021818B4FF67F7314
:1021800019401143818370470A460021818BC1F3B6
:102190000E014FF6FF7303EA022319438183704750
:1021A0000A460021018C4FF6FD731940114301844A
:1021B00070470A460021018C4FF6F773194011430E
:1021C000018470470A460021018C4FF6DF731940E5
:1021D0004FF6FF7303EA02131943018470470A465E
:1021E0000021018C4FF67F7319404FF6FF7303EA0D
:1021F00002131943018470470A460021018C4FF6EF
:10220000FF5319404FF6FF7303EA02231943018479
:1022100070470A460021018C4FF2FF7319404FF6B8
:10222000FF7303EA02231943018470470A46002121
:10223000018C4DF6FF7319404FF6FF7303EA02332A
:1022400019430184704730B5002301248C40A3B2A8
:10225000048C9C430484048C02FA01F5ADB22C4337
:10226000048430BD30B5002304248C40A3B2048C18
:102270009C430484048C02FA01F5ADB22C4304841F
:1022800030BD70B5034600200024184618300125E3
:102290008D40ACB21D8CA5431D8409B1082909D11C
:1022A00000EB6100056825F07005056005681543C1
:1022B00005600EE00D1FC5F34E052844056825F4A2
:1022C000E045056005684FF6FF7606EA02263543CD
:1022D000056070BD21B1028842F00202028004E074
:1022E00002884FF6FD731A400280704721B10288C0
:1022F00042F00402028004E002884FF6FB731A40A9
:102300000280704721B1828842F08002828004E01E
:1023100082884FF67F731A408280704702884FF69A
:10232000F7731A40028002880A430280704782884D
:102330004FF68F731A40828082880A4382807047EA
:1023400002894FF6F8731A40028102890A4302811A
:10235000704702894FF67F731A40028102890A434F
:1023600002817047818470478185704781867047FC
:102370000187704781877047A0F840107047028836
:102380004FF6FF431A40028002880A4302807047DA
:102390000146888E70470146088F70470146888F36
:1023A00070470146B1F8400070470146888C70477D
:1023B0000146088D704702460020138A0B400BB17E
:1023C000012000E000207047CA430282704730B508
:1023D0000246002000230024158A05EA010395899E
:1023E00005EA010413B10CB1012000E0002030BD6A
:1023F000CA43028270470021002200BF07E000228A
:1024000001E0531C9AB2322AFBDB4B1C99B2814289
:10241000F5D370470021002200BF08E0002201E050
:10242000531C9AB2B2F5826FFADB4B1C99B281420F
:10243000F4DB704708B501210820FEF767F946F282
:102440002230ADF8000028208DF8030069462E48A0
:10245000FEF720FA01211020FEF758F94FF22F0065
:10246000ADF8000028208DF8030069462748FEF7E4
:1024700011FA01212020FEF749F90420ADF80000EF
:1024800028208DF8030069462148FEF703FA08BDAD
:1024900070B504460025012C09D0092C07D00D2C5D
:1024A00005D00E2C03D00F2C01D0102C07D11948C9
:1024B00030F814101448FEF780FA054622E0022C8A
:1024C0000FD0032C0DD0042C0BD0052C09D0062CDA
:1024D00007D0072C05D0082C03D00A2C01D00B2CD8
:1024E00007D10C4830F814100848FEF766FA054684
:1024F00008E00C2C06D1074830F814100448FEF709
:102500005CFA0546284670BD000C014000100140F1
:10251000001401402800002008B501211020FEF71A
:10252000F5F84FF44070ADF8000010208DF803006E
:1025300003208DF8020069463A48FEF7ABF9012105
:102540000420FEF7E3F84FF4C050ADF8000010206F
:102550008DF8030003208DF8020069463248FEF72B
:1025600099F901210820FEF7D1F849F20100ADF8F0
:10257000000010208DF8030003208DF8020069464A
:102580002A48FEF787F908BD10B50446012C01D092
:10259000052C06D1264830F814102248FEF727FAF9
:1025A00018E0022C03D0032C01D0042C06D12048C3
:1025B00030F814101C48FEF71AFA0BE0062C03D072
:1025C000072C01D0082C05D1194830F814101748F1
:1025D000FEF70DFA10BD10B50446012C01D0052CF4
:1025E00006D1134830F814100E48FEF702FA18E02E
:1025F000022C03D0032C01D0042C06D10C4830F857
:1026000014100948FEF7F5F90BE0062C03D0072C4F
:1026100001D0082C05D1064830F814100348FEF705
:10262000E8F910BD0010014000080140000C014015
:102630004A00002008B501210820FEF767F84FF492
:10264000C040ADF8000004208DF8030003208DF891
:1026500002006946FE48FEF71DF901211020FEF731
:1026600055F8C020ADF8000004208DF803000320C9
:102670008DF802006946F748FEF70CF908BD00B571
:1026800087B00121C802FEF741F801214803FEF797
:102690003DF8F148FEF7A2FF04A8FFF79FFB0020DA
:1026A000ADF810004FF6FF70ADF814000020ADF843
:1026B0001600ADF8120004A9E748FFF763F80023FD
:1026C0001A460321E448FFF76CFC01A8FFF799FBC9
:1026D0000620ADF80C0001A9DF48FFF7E6FA00215B
:1026E000DD48FFF73FFE0121DB48FFF7A7FBDB4892
:1026F000FEF774FF04A8FFF771FB0020ADF810008F
:102700004FF6FF70ADF814000020ADF81600ADF8DC
:10271000120004A9D148FFF735F800231A46032117
:10272000CE48FFF73EFC01A8FFF76BFB0620ADF893
:102730000C0001A9C948FFF7B8FA0021C748FFF704
:1027400011FE0121C548FFF779FB07B000BD10B5A8
:10275000FFF770FFFFF793FF10BD70B50025002451
:10276000BD48FFF722FE0546BD4800682C1AB4F5A7
:10277000004F03DBA4F57F44FF3C05E014F5004F58
:1027800002DC4FF6FF700444B5480560A0004042EB
:1027900070BD70B500250024B048FFF706FE054661
:1027A000B04800682C1AB4F5004F03DBA4F57F4451
:1027B000FF3C05E014F5004F02DC4FF6FF700444C7
:1027C000A8480560A000404270BD70B5A348FFF75F
:1027D000ECFDA54908600020A049243108809F48ED
:1027E000008800F0100028B19F480068A0F1011097
:1027F0009D4908609C48006840429B490860084623
:1028000000689A4948609448FFF7CFFD98490860EE
:10281000084600689749486000208F4924310880A5
:102820008D48008800F0100028B191480068A0F1A0
:1028300001108F4908608E48006840428C4908604A
:10284000894800688C490860894800688B4908609D
:10285000854800688A494860854800688949486019
:1028600081480068012804DC7F480068B0F1FF3F20
:102870000BDA7D48006802F0B0FB044682480CC8C1
:10288000204602F00BFA804A03C27948006801280A
:1028900004DC77480068B0F1FF3F0BDA7448006849
:1028A00002F09BFB044679480CC8204602F0F6F97A
:1028B000764A03C270BD70B5064600250024304636
:1028C000FFF773FD0546724800682C1AB4F5004FF7
:1028D00003DBA4F57F44FF3C05E014F5004F02DC68
:1028E0004FF6FF7004446A480560204670BD70B51D
:1028F0000646002500243046FFF757FD054665488B
:1029000000682C1AB4F5004F03DBA4F57F44FF3CAC
:1029100005E014F5004F02DC4FF6FF7004445D48FB
:102920000560204670BD2DE9F34F87B08A465A48AE
:1029300006904F4800684C490968401A002805DD98
:102940004B48006848490968401A04E04648006856
:1029500047490968401A03281FDB4F49504602F0D7
:102960002DF94E49039002F029F9834602F05FFBEE
:1029700080464B4A4B4B02F0AAFACDE904014A4982
:10298000086802F054FB0646DDE9042302F086F9EC
:10299000044602F05FFB4449086043490868434924
:1029A00002F07EFB06D840490868404902F000F971
:1029B0003D4908603C4908683D4902F067FB06D87C
:1029C00039490868394902F0A1F8374908603649A1
:1029D000086802F02CFBCDE9000103F0D1FCCDE941
:1029E0000401DDE9061002F0E9F8834602F01FFB5E
:1029F000CDE90201DDE9042302F0F7F904460D46B2
:102A00002949486802F013FB064622462B4602F08D
:102A100045F9804602F01EFB23494860086802F031
:102A200006FB804603F0FAFCCDE90001DDE9061063
:102A300002F0C4F8804602F0FAFA0646DDE9002307
:102A400002F0D3F9CDE902011749886832E00000AD
:102A5000000C014000100140002C014000340140F6
:102A60009C000020A0000020600000203002002018
:102A70006400002058020020700000207400002034
:102A800090010020B8010020800000207800002084
:102A9000A4000020A80000200000A0400000344353
:102AA000EA2E4454FB210940840100200000B44375
:102AB0000000B4C302F0BBFA0446DDE9022302F0D1
:102AC000EDF8CDE9040102F0C5FA0249886009B0C9
:102AD000BDE8F08F8401002008B501210420FDF736
:102AE00015FE0520ADF8000018208DF80300032026
:102AF0008DF8020069464E48FDF7CCFE0121042006
:102B0000FDF704FE0A20ADF8000010208DF8030048
:102B100003208DF8020069464548FDF7BBFE08BD5D
:102B200000B587B001210846FDF7FDFD4FF080405C
:102B3000FEF754FD0420ADF810000020ADF812009F
:102B40004FF4FA60ADF814000020ADF8160004A9A7
:102B50004FF08040FEF716FE7020ADF80000012017
:102B6000ADF802004FF47A70ADF806000220ADF81F
:102B7000080069464007FEF742FE0821C806FFF735
:102B80008DFA69464FF08040FEF7C8FE0821C8065E
:102B9000FFF79AFA01218807FFF750FA0121880709
:102BA000FFF74CF907B000BD10B50446604204B20F
:102BB000002C0ADA08211E48FDF71BFF604281B293
:102BC0004FF08040FFF7D6FB0AE008211848FDF7D8
:102BD0000EFFC4F5FA6081B24FF08040FFF7CAFBE8
:102BE00010BD10B50446002C0ADA02211048FDF78A
:102BF00000FF604281B24FF08040FFF7B7FB0AE070
:102C000002210B48FDF7F3FEC4F5FA6081B24FF0E4
:102C10008040FFF7ABFB10BD10B5FFF75DFFFFF77E
:102C20007FFF0020FFF7DDFF0020FFF7BDFF10BD95
:102C30000008014008B501210420FDF767FDF020E0
:102C4000ADF8000000208DF8030069463748FDF715
:102C500021FE01211020FDF759FD1020ADF80000E4
:102C600000208DF8030069463148FDF713FE08BDCA
:102C700000B585B001218802FDF748FD00200090D5
:102C80008DF8040001208DF805004FF460200290BB
:102C90000020039010208DF8100069462548FEF7AB
:102CA0009CFA01212348FEF7C4FA2248FEF7E3FA12
:102CB00000BF2048FEF7E4FA0028FAD11D48FEF7CD
:102CC000E9FA00BF1B48FEF7EAFA0028FAD1012111
:102CD0001848FEF7EEFA05B000BD10B5FFF7AAFFE1
:102CE000FFF7C6FF10BD70B504460025002111484E
:102CF000FEF7DFFA1048015D01231A460D48FEF782
:102D000004FB01210B48FEF7D4FA00BF0221094859
:102D1000FEF740FC0028F9D00648FEF75DFB0546AB
:102D200000210448FEF7C5FA284670BD000801409E
:102D30000010014000280140BC64000808B50121D2
:102D40000420FDF7E3FCC020ADF8000018208DF84A
:102D5000030003208DF8020069463148FDF79AFD13
:102D600008BD00B587B001210420FDF7DCFC4FF45D
:102D70002F70ADF810000020ADF812004FF4FA608B
:102D8000ADF814000020ADF816008DF8180004A965
:102D90002448FEF7F7FC7020ADF800000120ADF8E4
:102DA00002000020ADF804004FF47A70ADF8060080
:102DB0000020ADF808004FF48070ADF80C00002042
:102DC000ADF80E0069461748FEF719FD08211548B1
:102DD000FFF764F969461348FEF753FD08211148CF
:102DE000FFF765F901210F48FFF728F801210D4889
:102DF000FFF730F807B000BD10B5FFF79FFFFFF7F2
:102E0000B0FF10BD10B5044621460648FFF7AEFAE4
:102E100010BD10B5044621460248FFF7A9FA10BDBF
:102E2000000C01400008004008B501211420FDF706
:102E30006DFC4FF48060ADF8000018208DF80300A1
:102E400003208DF8020069468048FDF723FD4FF40A
:102E50000060ADF8000004208DF8030069467B484F
:102E6000FDF718FD08BD00B585B00121C804FDF7C8
:102E70005AFC4FF4E13001900020ADF80800ADF8A5
:102E80000A00ADF80C00ADF810000C20ADF80E00F3
:102E900001A96F48FDF7B9FF012240216C48FEF7F8
:102EA00071F801216A48FEF73CF84FF4A060FDF785
:102EB00051FA34208DF8000001208DF801008DF8C2
:102EC00002008DF803006846FDF749FA05B000BD21
:102ED00000B58BB001210220FDF70BFC5D48FDF72A
:102EE00027FE5B48001D00905B4801900020029087
:102EF0000920039000200490802005900020069077
:102F00000790202008904FF44050099000200A902C
:102F100069465048FDF7AEFE01214E48FDF7D5FE4B
:102F20004E48FDF701FF0BB000BD10B5FFF77CFF69
:102F3000FFF799FFFFF7CCFF10BD70B504460D46B3
:102F400000BF40212046FEF7C7F80028F9D02946E7
:102F50002046FEF753F870BD0FB470B58AB0054631
:102F600000260F9820B930460AB070BC5DF814FBFB
:102F700010A8099001A8099A0F9902F057FA06467D
:102F800001AC04E014F8011B2846FFF7D6FF2078B7
:102F90000028F7D109903046E6E710B504462146EF
:102FA0002B48FEF72BF800BF80212948FEF794F844
:102FB0000028F9D010BD10B5044621462848FEF778
:102FC0001DF800BF80212648FEF786F80028F9D0BA
:102FD00010BD10B540F225512148FEF793F870B1AD
:102FE0001F48FEF70FF81F490870084601781C4873
:102FF000FFF7A3FF40F225511948FEF7ADF810BDC9
:1030000015480078FA281FD113484078AF281BD103
:1030100011488078062817D10F48C078702813D13E
:103020000D4909790C4A527911440B4A927911449D
:10303000094AD2791144C8B20749097A814202D1BA
:103040000121094A116000BF7047000000100140D3
:10305000004C0040300402406F03002000020010CA
:1030600000380140AC0000204001002000214162F6
:1030700001614160C160816001600162704700B51B
:103080000320A44948614FF07E5088610020C86148
:103090000320A14948614FF07E5088610020C8613B
:1030A0009C48FFF7E3FF9C48FFF7E0FF00BD0020CE
:1030B0009A49086048608860C86064204861984800
:1030C00088610520C8614FF4FA7048620020954974
:1030D000086048608860C8606420486190488861E2
:1030E0000520C8614FF4FA70486200208E490860DC
:1030F00048608860C8604FF47A7048618B48886186
:103100000220C861002048628949086048608860E0
:10311000C86042F210704861864888610520C86125
:103120000020486203207B4948614FF07E5088614F
:103130000020C8610320784948614FF07E508861C3
:103140000020C86170472DE9F0470446002500269D
:10315000A9460027D4E90001451AA0682E1A206963
:103160004719A560E660276173480068854207DA61
:10317000714800684042854202DD206A606211E0C9
:10318000384601F013FF8246A16901F017FD804621
:1031900001F034FF616901FB0500E16901FB0600F4
:1031A000401060626549606A0968884203DB6348D1
:1031B0000068606207E06249606A0968884202DC70
:1031C0005F4800686062606A2062606ABDE8F087FC
:1031D0002DE9FC5F0446D4E90001451AA0682E1AC7
:1031E000E068371AA560E66056480068854204DA50
:1031F000544800684042854223DCE16901FB07F046
:1032000001F0D4FE0190284601F0D0FE8346A1696A
:1032100001F0D4FC8246616901FB06F001F0C6FEB4
:103220005146009001F072FC8146019901F06EFC5C
:10323000804601F0E3FE444990FBF1F0616A0844E6
:1032400060624249B1F90010606A884204DB3F487D
:10325000B0F90000606209E03D49B1F90010606A10
:10326000884203DC3A48B0F900006062606ABDE859
:10327000FC9F2DE9FC5F0446D4E90001451AA068D3
:103280002E1AE068371AA560E66032480068854269
:1032900004DA304800684042854223DCE16901FBE2
:1032A00007F001F083FE0190284601F07FFE83467F
:1032B000A16901F083FC8246616901FB06F001F01F
:1032C00075FE5146009001F021FC8146019901F004
:1032D0001DFC804601F092FE1F4990FBF1F0616AEF
:1032E000084460621D49B1F90010606A884204DB3D
:1032F0001A48B0F90000606209E01949B1F90010FC
:10330000606A884203DC1648B0F900006062606AB7
:10331000BDE8FC9F300200205802002090010020F0
:103320000000C842B8010020E0010020000048422F
:103330000802002000002041C4000020B00000204E
:10334000B4000020C800002000881300B80000204E
:10335000BA000020C000002080380100BC0000201E
:10336000BE0000201FB501210220FDF7DCF900207E
:10337000ADF806002320ADF8040040F2E730ADF8C8
:1033800008000020ADF80A0001A95048FEF7FAF93C
:10339000012211464D48FEF76CFD01214B48FEF716
:1033A0004DFD1D208DF8000002208DF80100012048
:1033B0008DF802008DF803006846FCF7D0FF1FBDB2
:1033C0002DE9F05F01214148FFF701F801287BD189
:1033D00001213E48FFF70CF83D480068401C3C497D
:1033E00008603C48FFF783FA3B4908603B48FFF719
:1033F00062FA3B4908603848006801F0D7FD804612
:1034000001F015FE06464FF06632364B01F05FFDC7
:10341000044635480CC8204601F040FC324A03C23D
:103420002F48006801F0C2FD804601F000FE06460C
:103430004FF066322B4B01F04AFD04462B480CC876
:10344000204601F02BFC294A03C2274827490CC813
:1034500003C901F023FC264A03C21D480068052861
:1034600032D100201A4908601D4909681A4A1268B9
:10347000881A01F0B2FD804600221E4B01F027FDA4
:1034800006464FF033321C4B01F021FD044601F09B
:10349000E1FD824610490968114A1268881801F056
:1034A0009CFD804600224FF0804301F010FD06464F
:1034B0004FF03332104B01F00AFD044601F0CAFD13
:1034C00083465146FFF72FFABDE8F09F0004004005
:1034D000CC0000200034014060000020002C01409E
:1034E00064000020667B9640800000207800002069
:1034F000880000200000434033679640002000E031
:10350000401C2828FCDB704710B54FF40061FB48D5
:10351000FDF76FFA4FF48061F848FDF768FAFFF79E
:10352000EDFF4FF40061F548FDF761FAFFF7E6FFA4
:1035300010BD08B501210820FDF7E8F84FF4006040
:10354000ADF8000003208DF8020010208DF8030074
:103550006946EA48FDF79EF908BD08B50121082033
:10356000FDF7D4F803208DF802004FF40060ADF8A9
:10357000000004208DF803006946E048FDF78AF951
:1035800008BD10B5FFF7E9FF4FF48061DB48FDF798
:103590002EFAFFF7B3FF4FF40061D848FDF70DFA9C
:1035A00018B10120D649087002E00020D449087003
:1035B0004FF48061D148FDF71CFAFFF7BAFFFFF71F
:1035C0009DFFCF48007810BD70B5054600241FE070
:1035D00005FA04F000F0800028B14FF40061C748FC
:1035E000FDF705FA04E04FF40061C448FDF701FA65
:1035F000FFF784FF4FF48061C048FDF7F8F9FFF74B
:103600007DFF4FF48061BD48FDF7F3F9601CC4B243
:10361000082CDDDBFFF7B5FF70BD10B54FF400617E
:10362000B648FDF7E4F94FF48061B448FDF7DFF9DF
:10363000FFF764FF4FF40061B048FDF7DAF9FFF7D8
:103640005DFF4FF48061AD48FDF7D3F910BD2DE962
:10365000F04180460D4616461F46FFF7DEFF404606
:10366000FFF7B2FF2846FFF7AFFF002404E0385D04
:10367000FFF7AAFF601CC4B2B442F8DBFFF744FFB7
:103680000020BDE8F08170B504460D46164633466D
:103690002A462146D020FFF7DAFF70BD10B5044658
:1036A0002CB14FF400619548FDF7A1F904E04FF407
:1036B00000619248FDF79DF94FF480618F48FDF756
:1036C00096F9FFF71BFF4FF480618C48FDF791F9E5
:1036D000FFF714FF10BD70B54FF400618748FDF788
:1036E00086F9FFF70BFFFFF738FFFFF707FF00250D
:1036F00019E06006040E4FF480618048FDF777F909
:10370000FFF7FCFE4FF400617C48FDF756F908B165
:10371000601CC4B24FF480617848FDF76AF9FFF786
:10372000EDFE681CC5B2082DE3DBFFF702FF204663
:1037300070BD2DE9F04107460E4615469846FFF745
:103740006CFF3846FFF740FF3046FFF73DFFFFF7BD
:1037500064FF791CC8B2FFF737FF00240FE0FFF7C2
:10376000BAFF08F80400681EA04203D10120FFF749
:1037700095FF02E00020FFF791FF601CC4B2AC424D
:10378000EDDBFFF7C1FE0020BDE8F08170B5044617
:103790000D46164633462A462146D020FFF7C9FF7C
:1037A00070BD08B501210820FCF7B0FF4FF4806020
:1037B000ADF8000003208DF8020010208DF8030002
:1037C00069464E48FDF766F84FF40060ADF800001A
:1037D00010208DF8030069464848FDF75BF808BDE6
:1037E00008B5FFF7DEFF6420FEF714FE802000908E
:1037F0006B4601226B21D020FFF729FF3220FEF714
:1038000009FE002000906B4601226B21D020FFF7BB
:103810001EFF3220FEF7FEFD6B4601226B21D020F9
:10382000FFF715FF072000906B4601221921D020D9
:10383000FFF70DFF862000906B4601221A21D02051
:10384000FFF705FF102000906B4601221B21D020BE
:10385000FFF7FDFE102000906B4601221C21D020B6
:10386000FFF7F5FE002000906B4601226A21D02070
:10387000FFF7EDFE022000906B4601223721D02099
:10388000FFF7E5FE3220FEF7C5FD002000906B46F5
:1038900001220A211B480078FFF7D9FE3220FEF7EB
:1038A000B9FD012000906B4601220A2115480078DD
:1038B000FFF7CDFE09E06B46012200211148007898
:1038C000FFF737FF0120FEF7A5FD9DF8000048280F
:1038D000F1D100200C4908600C480D4908600D48E2
:1038E00048600D4888600D490948C1600C48084986
:1038F00008610C490648416108BD0000000C014008
:10390000FC000020DC000020D80000200000C0C027
:10391000BC020020210DD23C00000C42ABAA2A3E82
:10392000000054C20CCEC73C08B500200090FE4AEF
:103930000E213B20FFF72AFFFB484078FA4909781F
:1039400000EB012000B2F9490880F748C078F64939
:10395000897800EB012000B2F4494880F2484079B0
:10396000F149097900EB012000B2F0498880EE4866
:10397000C079ED49897900EB012000B2EB49C8809C
:10398000E948407AE849097A00EB012000B2E749AA
:103990000881E548C07AE449897A00EB012000B249
:1039A000E2494881E048407BDF49097B00EB012088
:1039B00000B2DE498881DC4B06220321DC48007816
:1039C000FFF7B7FED8480078D749497800EB0120C7
:1039D00000B2D649C881D4488078D349C97800EB71
:1039E000012000B2D1490882CF480079CE494979F7
:1039F00000EB012000B2CD494882012000906B46C7
:103A000001220A21CA480078FFF721FE08BD70B5DF
:103A1000C848007801287DD1C449B1F90E0001F0F1
:103A2000C5FA0546C4480168284601F039FB06D2AC
:103A3000BE49B1F90E0001F0B9FABF490860BB49AF
:103A4000B1F9100001F0B2FA0546BB4841682846BA
:103A500001F026FB06D2B549B1F9100001F0A6FA33
:103A6000B5494860B149B1F9120001F09FFA054625
:103A7000B1488168284601F013FB06D2AB49B1F981
:103A8000120001F093FAAC498860A849B1F90E0020
:103A900001F08CFA0546A9480168284601F0F6FABB
:103AA00006D2A249B1F90E0001F080FAA3490860DC
:103AB0009E49B1F9100001F079FA05469F48416826
:103AC000284601F0E3FA06D29849B1F9100001F056
:103AD0006DFA9A4948609549B1F9120001F066FA09
:103AE000054696488168284601F0D0FA06D28F49EB
:103AF000B1F9120001F05AFA9049886090480068C4
:103B0000401C8F4908600846006840F6B83188427A
:103B10002DDB00E02BE00020894908608549087012
:103B2000002422E0854A52F82410834A52F82400E7
:103B300000F0ECFF05464FF0804101F071F881493B
:103B400041F834007D4A52F824107B4A52F8240090
:103B500001F02EF8054629464FF0804001F060F84C
:103B6000784901EBC4014860641C032CDADB70BDAA
:103B700070B5FFF7D9FEFFF74AFF6C49B1F90E00A7
:103B800001F014FA06466F480168304601F010F85B
:103B900005466C484168284601F010F86A490860FB
:103BA0006249B1F9100001F001FA064665488168E2
:103BB000304600F0FDFF05466248C168284600F027
:103BC000FDFF614948605949B1F9120001F0EEF971
:103BD00006465C480169304600F0EAFF0546594850
:103BE0004169284600F0EAFF574988605748006855
:103BF000082805DB00205549086001205449087059
:103C000053480078B8B3002432E0524A02EB441221
:103C10004E4B1B6852F823104F4A52F8240000F014
:103C2000C7FF4D4941F82400474850F8240049494E
:103C300001EB4411454A126841F82200454A02EB63
:103C40004412424B1B6852F82310434A52F8240096
:103C500000F05CFF404941F8240051F824004FF087
:103C6000824100F0DDFF3D4941F82400601CC4B2F0
:103C7000032CCADB2EE0FFE7002429E0324850F88D
:103C80002400344901EB4411304A126841F8220003
:103C9000304A02EB44122D4B1B6852F823102E4A77
:103CA00052F8240000F032FF2B4941F82400274845
:103CB0000068401C01F07AF90546274951F82400B4
:103CC000294600F0ADFF254941F82400601CC4B22C
:103CD000032CD3DB1D480068401C1C49086070BDE4
:103CE0002DE9F04F87B005460020069000212846B8
:103CF00001F0CCF903D285F00045012006904FF089
:103D00007E51284601F0C2F94AD21549284600F0F2
:103D100055FF2946039000F051FF8346114900F0FA
:103D2000F5FE824629461FE0800200208E02002018
:103D3000DC0000208C030020E4000020F0000020C4
:103D4000E0000020BC020020A402002000010020AE
:103D500004010020E002002040030020B002002007
:103D600008AC1CBDA375143E00F028FF2946049042
:103D700000F024FF81467E4900F01AFF2946059095
:103D800000F01CFF8046294600F018FF07467949DD
:103D900000F0BCFE0646294600F010FF04468DE008
:103DA0007549284601F072F919D27449284600F085
:103DB00005FF8246724900F0FBFE8146294600F06D
:103DC000FDFE80466F4900F0A1FE0746294600F03F
:103DD000F5FE06466C4900F099FE04466EE06B491C
:103DE000284601F053F931D26949284600F0E6FE31
:103DF0006849019000F08AFE8346294600F0DEFE05
:103E00006549029000F0D4FE2946039000F0D6FEEA
:103E10008246624900F07AFE8146294600F0CEFED5
:103E20005F49049000F0C4FE8046294600F0C6FEBB
:103E30005C49059000F06AFE0746294600F0BEFE88
:103E40000646594900F062FE044637E057492846C5
:103E500001F01CF931D25649284600F0AFFE554911
:103E6000019000F053FE2946029000F0A7FE52494F
:103E7000039000F09DFE8346294600F09FFE4F49C7
:103E8000049000F043FE8246294600F097FE8146EA
:103E90004B4900F08DFE8046294600F08FFE4949CF
:103EA000059000F033FE0746294600F087FE0646DF
:103EB000454900F02BFE044600E0444C06980128DA
:103EC00004D184F0004007B0BDE8F08F2046FAE747
:103ED0002DE9F047044689462146484600F0A0FEF9
:103EE00082465046FFF7FCFE82460021204601F044
:103EF000CDF811D20021484601F0D2F80CD250463C
:103F000001F095F80746324A324B00F0C7FE0546ED
:103F100001F0A0F8824615E00021204601F0B6F835
:103F200010D20021484601F0B1F80BD2504601F002
:103F30007EF80746264A284B00F0B0FE054601F001
:103F400089F882465046BDE8F08710B523480068DE
:103F500001280AD0224A11689068FFF7B9FF044689
:103F6000204900F02BFE2049886000F0FFFC10BDC6
:103F7000821CA43EFCC67F3F000040403EA5033D9E
:103F80007614903E3D79703F8F58C83D0000A041A7
:103F900048F502B4A2AE213741BDA3394569AF3B14
:103FA0009B9E553D1F5F933E54693C3F0000C842B5
:103FB000919C8BABEEFEE02F85C59533F6CDD436C4
:103FC000A593AD39E6F4213C9C1CB53F79E9BE3F91
:103FD000EA2E4454FB210940FB2109C0D8000020EF
:103FE000B0020020E12E6542D402002070B50446E4
:103FF0000D46B4F5FA7F01DD4FF4FA7414F5FA7F3B
:1040000000DAAB4CB5F5FA7F01DD4FF4FA7415F523
:10401000FA7F00DAA64C20B2FEF7E3FD28B2FEF7E5
:10402000C3FD70BD70B504460D46A2480460A248A9
:104030000068A0494860A1480560A14800689F4900
:1040400048609C48FFF77FF806B23046FEF7C9FD8E
:104050009A48FFF778F806B23046FEF7A5FD70BD26
:1040600010B5AA219748FCF7C9FF00BF80219548E9
:10407000FDF732F80028F9D0934801789148FCF711
:10408000BDFF00BF80218F48FDF726F80028F9D03A
:104090008E4801788B48FCF7B1FF00BF802189482A
:1040A000FDF71AF80028F9D055218648FCF7A6FF3D
:1040B00000BF80218348FDF70FF80028F9D010BD1C
:1040C000FEF7DDFFFCF7C5F8FFF74CF9FEF7A4FD9E
:1040D000FEF73DFBFEF729FF0020FEF782FD0020E2
:1040E000FEF762FD00F0DDF900BF59E0724800788C
:1040F000754908707248007874490870FFF7B0FF7E
:10410000FEF77EFF72480068A0B100207049086089
:10411000704880796F49C97900EB012000B26E497F
:1041200008806C4800796B49497900EB012000B2A6
:104130006A4908806848008880B1674AB2F900205F
:10414000664BB3F90030D11A634AB2F90020634BD1
:10415000B3F90030D018FFF765FF1DE05F48008815
:1041600080B15D4AB2F900205C4BB3F90030D11A3E
:10417000594AB2F90020594BB3F90030D018FFF773
:1041800051FF09E000210846FFF730FF4948FEF7DC
:104190006DFF4A48FEF76AFF4FF4FA70FEF73AF9EE
:1041A000A4E700240AE0002406E0611CC8B2FEF780
:1041B0006FF94B490855641C102CF6DBF3E737E028
:1041C0000120FEF7E1F90220FEF7DEF90320FEF7F9
:1041D000DBF90420FEF7D8F90520FEF7FCF90620EC
:1041E000FEF7F9F90720FEF7F6F90820FEF7F3F9D4
:1041F0004FF47A70FEF70EF90120FEF7ECF9022079
:10420000FEF7E9F90320FEF7E6F90420FEF7E3F9EB
:104210000520FEF7B9F90620FEF7B6F90720FEF7EC
:10422000B3F90820FEF7B0F94FF47A70FEF7F2F810
:10423000C6E700240DE0012409E0E0B2FEF753FDDB
:10424000284921F814000320FEF7E4F8641C062C2A
:10425000F3DBF0E709E0F020FEF79FFEF120FEF728
:10426000AAFE4FF4FA70FEF7D5F8F4E709E01E480D
:10427000008800B2FEF7B5FC1B48008800B2FEF7CC
:1042800093FCF4E709E01949098888B2FEF7BAFD02
:104290001649098888B2FEF7BCFDF4E705E0FEF791
:1042A00094FA4FF4FA70FEF7B5F8F8E7704700009B
:1042B0000CFEFFFF300200206000002058020020AA
:1042C00064000020004C00404C0100204D01002003
:1042D000400100206F030020380100203A01002037
:1042E0004C0300205C03002010010020140100207A
:1042F000704700BFFEE700BFFEE700BFFEE700BF5C
:10430000FEE770477047704710B501218807FEF738
:104310005EF818B101218807FEF76AF810BD10B5E4
:1043200001213D48FEF753F818B101213A48FEF744
:104330005FF810BD10B540F225513848FCF7E2FE99
:10434000012868D140F225513448FCF705FF334875
:10435000FCF758FEC4B23248324909784454314817
:10436000007848B9FA2C01D0002002E02D480078EE
:10437000401C2C4908704DE02A480078012809D1DA
:10438000AF2C01D0002002E026480078401C2549CF
:1043900008703FE023480078022809D1062C01D09C
:1043A000002002E01F480078401C1E49087031E0E0
:1043B0001C480078032809D1702C01D0002002E0AD
:1043C00018480078401C1749087023E01548007809
:1043D00003281FDD13480078082816D110490979F1
:1043E0000F4A527911440E4A927911440C4AD279FB
:1043F0001144C8B20A49097A814202D101210A4A0C
:1044000011600021074A117004E006480078401C42
:104410000449087000BF10BD00080040004C004077
:10442000660300204F010020400100200020724957
:1044300008704870086148808880C8800881488179
:10444000888148706D4908708860487070476A4874
:104450000069401C6849086108464088401C488043
:1044600008468088401C88800846C088401CC88058
:1044700008460089401C088108464089401C488144
:1044800008468089401C888108460078012804D1AC
:1044900008464078401C487002E0012056490870E8
:1044A000704710B500F0B2F8FFF7C0FF0120544983
:1044B000087010BD10B520215248FCF70DFE50B118
:1044C0005048FCF79FFDC4B2204600F09DF9202122
:1044D0004C48FCF70EFE10BD704710B500F027FAEF
:1044E00010BD70B54548007801283DD0434881682B
:1044F0008068401E414A906000292CDD10464088AB
:1045000011468988084405B21046408811468988BA
:10451000401A04B2B5F5FA7F01DD4FF4FA7515F5CE
:10452000FA7F00DA384DB4F5FA7F01DD4FF4FA7402
:1045300014F5FA7F00DA344C3048B0F90200002854
:1045400004DD21462846FFF76DFD12E0294620468E
:10455000FFF768FD0DE0002028498860FEF741FB69
:104560000020FEF721FB04E06FF0C701C820FFF731
:1045700059FDFFF7FDFAFFF7E8FC70BD7047704783
:1045800010B51F480078012835D11B480078012854
:1045900031D1FFF78FFF18488088022804DB002004
:1045A00015498880FFF798FF1348C088052804DB69
:1045B00000201149C880FFF790FF0F4800890A28A2
:1045C00004DB00200C490881FFF78BFF0A48408973
:1045D000142804DB002008494881FFF7CFFF064874
:1045E0008089322804DB002003498881FFF7C7FF58
:1045F00000200149087010BD780300208C030020C2
:1046000050010020004C00400CFEFFFF30B55F4819
:1046100000684FF47A72B0FBF2F1B1F1807F01D300
:1046200001201DE021F07F40401E4FF0E02250614C
:1046300050170F22002807DA13071D0E544B00F005
:104640000F04241F1D5503E013071C0E514B1C546F
:1046500000BF00204FF0E022906107201061002091
:1046600008B100BFFEE730BD10B54B4804684FF0FD
:10467000E02040694FF0E0218969401A4FF47A71D7
:1046800048434FF0E0214969B0FBF1F004EB4401ED
:10469000C1EBC41100EBC10200231046194610BD46
:1046A00030B50446FFF7E0FF054600BFFFF7DCFF2B
:1046B000421B61F10001121B71F10001F6D330BD04
:1046C00010B5044603E04FF47A70FFF7E9FF201EAF
:1046D000A4F101018CB2F6D110BD10B52F480078BD
:1046E00000B910BD2E48006840F2E731884207DA71
:1046F0002B480068401C2A490860FFF7A8FE02E02A
:1047000000202749086000BFEBE710B52248006889
:10471000401C21490860FFF7E0FF10BD2DE9F04182
:10472000044604EB44001F4901EB8000406804EBA1
:1047300044011C4A42F82100FFF796FF064600F0AC
:104740003EFC0546184900F039FA04EB4401154ACD
:1047500002EB8101486004EB4402124B53F8221033
:1047600004EB440203EB8202506800F021FA04EBF0
:1047700044010C4A02EB8101886004EB44001146BD
:1047800001EB80008068BDE8F0810000000000209F
:1047900018ED00E000E400E054010020500100208A
:1047A0006401002098030020BD37863530B5002312
:1047B000022204E0845C1C44E3B2541CE2B24C1EAE
:1047C0009442F7DC045D9C4200D030BDC478702C6C
:1047D00010D16424BA4DAC600479457904EB05240A
:1047E00024B2B74DAC808479C57904EB052424B29A
:1047F000B34D6C80C478712C04D10479012C01D1A3
:10480000AF4D2C7000BFE0E710B50446AD4800780E
:1048100006287DD2DFE800F0031B33414F68FA2CF5
:104820000DD10120A7490870FA21A7480278007825
:10483000401CA54B1870A5480068815406E0002074
:10484000A0490870A0490870A14908706DE0AF2C1C
:104850000DD102209B490870AF229B480178007857
:10486000401C994B187099480068425406E000209B
:1048700094490870944908709549087055E0062CD1
:1048800003D103208F49087006E000208D4908708D
:104890008D4908708E49087047E0702C03D10420C0
:1048A0008849087006E0002086490870864908702B
:1048B0008749087039E0864801780078401E844AAC
:1048C0001070022908DD804801780078401C7E4A7B
:1048D00010707E48006844547D480078022802D158
:1048E00005207849087020E0774801780078401C5E
:1048F000754A107075480068445410460178734832
:104900000068FFF753FF00206E490870704900E00F
:1049100003E008706C49087007E0002069490870DE
:10492000694908706A49087000BF00BF10BD10B522
:1049300063484078012818D16648674A1268815C4C
:104940006648FCF75BFB64480068401C62490860ED
:1049500010216248FCF7CDFB5F480068062804DDA3
:1049600000205D4908605649487010BD70B50025AB
:10497000FA2058490870AF204870032088707220D0
:10498000C8705749886800F039FB000A51494871DE
:104990005349886800F032FB4E490871022405E053
:1049A0004C48005D2844C5B2601CC4B2062CF7DB3D
:1049B0004848857101204249487070BD49490978CD
:1049C000092973D2DFE801F00513212F3D43494F38
:1049D0005500FA2803D10121424A117006E0002156
:1049E000404A1170404A1170404A117066E0AF2889
:1049F00003D102213B4A117006E00021394A1170AF
:104A0000394A1170394A117058E0062803D1032140
:104A1000344A117006E00021324A1170324A117096
:104A2000324A11704AE0702803D104212D4A1170D6
:104A300006E000212B4A11702B4A11702B4A11708D
:104A40003CE02B4908700521264A117036E02949BF
:104A500008700621234A117030E0274908700721A9
:104A6000204A11702AE02549087008211D4A11705A
:104A700024E0234908701F4909781D4A127801EB88
:104A8000022109B21F4A11801C4909781A4A12787A
:104A900001EB022109B21C4A11800021114A117058
:104AA000124A1170104A117008E0FFE700210D4A08
:104AB00011700D4A11700D4A117000BF00BF704790
:104AC0008C03002072010020730100206801002087
:104AD00074010020D403002078010020004C004025
:104AE000D40200207C0100207D0100207E010020F6
:104AF0006C0100206D0100206E0100206F0100207C
:104B0000700100203A01002038010020F0B480EA52
:104B10000102D40F4200B2EB410F02D20246084616
:104B200011464A0042D0C30DDDB2C1F3C752AD1ADF
:104B3000202D35DAC1F3160141F4000204B15242CE
:104B4000C5F1200602FA06F12A411044B3EBD05F0A
:104B500023D0C4B1012DA0EBC35009DCF0BC4FF051
:104B6000004202EAC352DBB200F5000000F013BBC2
:104B7000400000F1807000EBC350A0F1807040EA6B
:104B8000D170490009E0490841EAC071A0EBC35067
:104B900000F50000400800EBC350F0BC00F0F2BA92
:104BA0006142012202EB4101001BF6E7F0BC7047B5
:104BB00081F00041AAE780F00040A7E780EA010207
:104BC00010B502F00043400022D04A001FD0010E71
:104BD00001EB1261C0F35600C2F3560240F400002C
:104BE00042F40002A0FB022000047F39140400D02C
:104BF000401C50EA124001D44000491EC2B20C06CB
:104C000004EBD010401C4008802A02D003E00020B2
:104C100010BD20F00100002900DA0020184310BD6B
:104C200030B480EA010202F0004530F0004221F089
:104C3000004013D090B1C30DD40DC2F31601C0F3E0
:104C40001600E41A41F4000140F400027D34914260
:104C500001D3641C00E04900002C02DA30BC0020C3
:104C600070474FF400000023914201D3891A034397
:104C700040084FEA4101F7D151B1914202D14FF0C2
:104C8000004105E002D24FF0010101E06FF00101A7
:104C900003EBC450284430BC00F074BA2DE9FE4F39
:104CA000804681EA0300C00F0C46009021F00041CD
:104CB00023F00045B8EB0200A94105D24046214649
:104CC00090461C460B46024623F00040104347D056
:104CD000270DC7F30A00C3F30A510290401A01904E
:104CE00040286BDAC3F3130040F4801B009892460F
:104CF00020B10023D2EB030A63EB0B0B019859465A
:104D0000C0F14002504600F01CFA06460D465046DF
:104D10005946019A00F024FA10EB08006141002482
:104D200087EA115284EAE7731A4340D0009A62B3CB
:104D3000019A012A4FEA075215DC001B61EB0201C0
:104D40004FF0004202EA0752CDE90042001C41F553
:104D5000801132462B4600F05BFA03B0BDE8F08FBD
:104D600040462146F9E7001B61EB0201001C41F5BA
:104D7000801300185B412018A2F5001747EB0301D0
:104D800040EAD570B6196D4111E06D084FEA36065C
:104D900045EAC0754FEA0752001B61EB0201001C97
:104DA00041F5801149084FEA30000019514132465F
:104DB0002B4603B0BDE8F04F00F01BBA009801226B
:104DC00040000023D0EB020263EBE0730098214621
:104DD0004FEAE074B8EB000061EB0401E9E783F00F
:104DE00000435BE781F0004158E72DE9FE4F81EA7F
:104DF000030404F0004421F0004100944FF0000B44
:104E000023F0004350EA01045ED052EA03045BD071
:104E1000C3F30A54C1F30A552C44A4F2F3340194A9
:104E2000A0FB0254C1F3130141F48011C3F3130337
:104E300043F4801301FB024400FB034E840A970AEB
:104E400044EA815447EA8357A4FB076802958D0A18
:104E500005FB07854FEA932C04FB0C542705029DA4
:104E60004FEA065847EA1637B5EB08056EEB070C14
:104E7000870E920E47EA811742EA8312A7FB0201CE
:104E8000B6EB0B0164EB00042B0D43EA0C335E1808
:104E900044EB1C50DA465146E7FB0201C5F313040C
:104EA0004FEA0B3343EA14534FEA0432019C43EABE
:104EB0000603A4F10C040294009CCDE900B400F0B8
:104EC000A7F903B0BDE8F08F00200146F9E72DE90E
:104ED000F04D81EA030404F0004B21F00045144634
:104EE0004FF0000A23F0004150EA050220D054EAB6
:104EF00001021DD0C5F30A570246C5F31303C1F3DF
:104F00001300C1F30A5640F4801543F48013A7EB55
:104F10000608101BD64608F2FD3873EB050002D3D5
:104F200008F1010801E092185B41B8F1000F03DAC3
:104F300000200146BDE8F08D00204FF480110646A8
:104F400084460EE0171B73EB050705D3121B63EBBA
:104F5000050306434CEA010C49084FEA3000921859
:104F60005B4150EA0107EDD152EA030012D082EA18
:104F7000040083EA0501084305D0101BAB4106D2AB
:104F80000122002306E000224FF0004302E06FF010
:104F9000010253101AEB06004CEB085110EB0A000B
:104FA00041EB0B01BDE8F04D00F023B9C10F80EAE1
:104FB000E0700844CA079623002100F0ECB830B432
:104FC000044696230800214604D0B62330BC0022B4
:104FD00000F0E1B820460021F8E70EB5C10F80EAE5
:104FE000E0700844CA07002140F233438DE80E0008
:104FF0000A460B4600F00CF903B000BD00F0004279
:1050000020F00040C10DC0F3160040F400007F29DD
:1050100001DA00207047962903DCC1F19601C840EF
:1050200001E096398840002AF4D04042704700F0F1
:10503000004230F000400AD0C10D01F56071C0F3AC
:10504000160042EA0151C208400711437047002090
:105050000146704701F0004330B421F0004150EAAE
:10506000010206D00A0DA2F56072C1F31301002AF5
:1050700002DC30BC00207047440F44EAC104C10088
:10508000E01830BC00EBC25000F07CB8002801DB17
:10509000C0F10040002901DBC1F1004181427047AD
:1050A000002801DBC0F10040002901DBC1F1004113
:1050B0008842704730B50B4601460020202201246B
:1050C00009E021FA02F59D4205D303FA02F5491BD6
:1050D00004FA02F52844151EA2F10102F1DC30BDEC
:1050E0002DE9F05F0546002092469B46884606461D
:1050F000814640241BE0284641464746224600F0B0
:1051000017F953465A46C01A914110D31146184612
:10511000224600F016F82D1A67EB01084F4622468A
:105120000120002100F00DF817EB00094E41201E70
:10513000A4F10104DFDC484631462A464346BDE877
:10514000F09F202A04DB203A00FA02F10020704789
:105150009140C2F1200320FA03F3194390407047B5
:10516000202A06DBCB17203A41FA02F043EAE0732B
:1051700006E041FA02F3D040C2F120029140084318
:10518000194670470029A8BF7047401C490008BF56
:1051900020F00100704710B4B0FA80FC00FA0CF067
:1051A00050EA010404BF10BC704749B1CCF120049F
:1051B00021FA04F411FA0CF118BF0121214308432C
:1051C000A3EB0C01CB1D4FEA00614FEA102042BF58
:1051D000002010BC704700EBC35010440029A4BF4E
:1051E00010BC7047401C490008BF20F0010010BCF3
:1051F000704710B5141E73F1000408DA401C41F129
:10520000000192185B411A4301D120F0010010BD4A
:105210002DE9F04D92469B4611B1B1FA81F202E0C0
:10522000B0FA80F220329046FFF78BFF04460F461B
:1052300040EA0A0041EA0B0153465A46084313D09C
:10524000114653EA010019D0C8F14002504600F05F
:105250006FF805460E46504659464246FFF771FF25
:10526000084305D0012004E020463946BDE8F08D12
:105270000020054346EAE0762C4337430A9863054D
:10528000E40AA0EB08000022FD0A44EA47540A3071
:1052900002D500200146E9E7010510196941DDE961
:1052A000084500196941BDE8F04DA2E7C1F30A5273
:1052B000C1F3130140F2FF3341F480119A4202DA44
:1052C00000200146704740F233439A42A2F2334233
:1052D00002DC524200F02CB8FFF733BF30B5041E99
:1052E00071F1000404DB4FF00044404264EB010123
:1052F000141E73F1000405DB1C464FF000435242BC
:1053000063EB0403994208BF904230BD064C074D41
:1053100006E0E06840F0010394E807009847103485
:10532000AC42F6D3FAF708FFE86500080866000803
:10533000202A04DB203A21FA02F00021704721FAEA
:1053400002F3D040C2F12002914008431946704751
:1053500070B521F0004303430CD0C1F30A5500247B
:10536000D5EB040564EB0403D617AD1AB34102DB99
:105370000020014670BD201841EB025170BD0EB5F2
:1053800040F2334102910021CDE900110A460B465B
:10539000FFF73EFF03B000BD70B5C1F30A5201F044
:1053A00000450024C1F3130140F2FF3341F48011A2
:1053B0009A4201DA002070BD40F233439A42A2F2D1
:1053C000334203DC5242FFF7B3FF00E090402C432E
:1053D000F1D0404270BD70B58C1810F8015B15F02B
:1053E000070301D110F8013B2A1106D110F8012B57
:1053F00003E010F8016B01F8016B5B1EF9D12B077C
:1054000005D40023521E0DD401F8013BFAE710F831
:10541000013BCB1A921C03E013F8015B01F8015B1E
:10542000521EF9D5A142D8D3002070BD37B514461D
:105430000846064B6A46214600F006FC04466946CB
:10544000002000F098FF20463EBD00007763000872
:10545000490050EAC12018BF04204A0D18BF40F08F
:10546000010040F2FF72B2EB515F08BF40F0020052
:10547000012808BF052070472DE9F74F144694B066
:105480000021C4E902111599079121F00045C9498D
:105490008D4206DC1599C4E9000117B00020BDE873
:1054A000F08FC549DFF814A3A9423CDD0799C44E2B
:1054B0000029C44FC44A1599534619DDFFF78FFCE4
:1054C000554506D0C14AC24BFFF789FCC4E900012B
:1054D0000AE04FF0D352BE4BFFF781FC32463B4609
:1054E000FFF77DFCC4E9000117B00120BDE8F08F93
:1054F000FFF7D4FB554506D0B44AB54BFFF7CEFBBA
:10550000C4E900010AE04FF0D352B14BFFF7C6FBEC
:1055100032463B46FFF7C2FBC4E9000117B04FF02B
:10552000FF30BDE8F08FAB49A942159978DB21F037
:10553000004183468846A84AA84BFFF756FC002244
:10554000A74BFFF7ABFBFFF727FF0990FFF745FDE0
:1055500006460F469C4A5346FFF747FC43465A46C9
:10556000FFF740FC80468A46984A994B30463946B8
:10557000FFF73BFC2A0D01250B9242465346FFF7ED
:1055800031FC032DC4E9000139D00B98C1F30A5155
:10559000401A05EB45111139814230DA9148C34672
:1055A000784400EB0510CDF80CA00C90D0E9002356
:1055B00030463946FFF719FC02460B460491069027
:1055C00058460399FFF70BFC80468A4602460B4675
:1055D00058460399FFF703FC049B069AFFF7FFFB6D
:1055E00083460C9803913946D0E902233046FFF7F1
:1055F000FCFB5A46039BFFF7F2FB6D1CBDE70798C7
:105600000028A2BF099817B0BDE8F08F616881F04B
:1056100000416160099817B04042BDE8F08FFFE794
:1056200084461598C1F31301C0F30A50A0F2F53077
:105630004FEA601800F01F06C6F12000139000200A
:105640000690079041F4801E05206D4676B1664AAB
:1056500008EB00017A4452F8213002EB8101B3409B
:105660004A68139922FA01F1194305E05F4908EBF2
:105670000002794451F82210A1FB0E27A1FB0C1364
:105680001A449A4234BF0123002303EB070A05EBB7
:105690008003D3E901B70F448F4234BF01210021B9
:1056A00093448B4411B1934502D903E0934501D251
:1056B000012100E00021C3E901B7514445F8201061
:1056C000011EA0F10100C1DC0298059F00F100500D
:1056D000800F12900298DDE903568000FFF77DFCF1
:1056E000834628460D91FFF74AFE6FF01D02FFF733
:1056F0002FFECDE90E013046FFF741FE6FF03D026F
:10570000FFF726FE80468A463846FFF738FE6FF0E0
:105710005D02FFF71DFE0746424653461191FFF713
:10572000BDFADDE90E23FFF7B9FA5A460D9BFFF7E4
:10573000B5FA00250E465A4628460D9BFFF74FFB4B
:10574000DDE90E23FFF74BFB42465346FFF747FBCD
:105750003A46119BFFF746FBDFF898A0244A5346D0
:10576000FFF743FB07468846234A244B3146284629
:10577000FFF73BFB3A464346FFF790FA0746884659
:105780004FF0A842534631462846FFF72EFB3A46D3
:105790004346FFF783FA159A12F0004F04D0129A8D
:1057A00081F0004152421292C4E90001129817B0F0
:1057B000BDE8F08FFB21E93F7CD90240FB21F93F96
:1057C0007370032E8A19A33B000040543163621AA0
:1057D00061B4D03DFB21394183C8C96D305FE43FDE
:1057E0000000E03F540F0000D00E0000B20E000099
:1057F000182D4454FB21F93D3326A611460B113CCC
:105800002DE9FF4D21F0004807460C46B8F1795FBD
:1058100008DAFFF7C1FD002801BF0020324904B0BB
:10582000BDE8F08D3A46234610461946FFF7DDFAEB
:10583000054602462D480E460B460621784400F0E8
:105840005DF82A463346FFF7D0FADDE902238246A7
:105850008B4638462146FFF7C8FA04460F465246A3
:105860005B4628463146FFF7C0FA22463B46FFF723
:10587000B6FA07468A464FF0FF3228463146FFF710
:1058800067FD1B4A90450ADA3A465346FFF7A7FAE6
:1058900004B00022BDE8F04D134BFFF7A3BA154A40
:1058A0004245A8BFA8F500154FF00004B8BF124D3F
:1058B00022462B46FFF793FA0646884622462B4699
:1058C00000200949FFF78BFA04460D463A46534635
:1058D00030464146FFF783FA04B022462B46BDE826
:1058E000F04DFFF77FBA00000000F03F880C000089
:1058F0003333D33F0000E93F0000D23F2DE9F041B0
:105900004F1E00EBC7010446D1E9000115461E46B3
:1059100037F006020DD02A463346FFF766FA7F1E9F
:1059200004EBC703D3E90023FFF7B8F937F0060209
:10593000F1D1022F25D0042F13D0062F18BFBDE8B8
:10594000F0812A463346FFF750FAD4E90A23FFF7DD
:10595000A5F92A463346FFF748FAD4E90823FFF7AA
:105960009DF92A463346FFF740FAD4E90623FFF7AC
:1059700095F92A463346FFF738FAD4E90423FFF7AE
:105980008DF92A463346FFF730FAD4E90223FFF7B0
:1059900085F92A463346FFF728FAD4E90023BDE803
:1059A000F041FFF77BB900002DE9FF4D054621F0DE
:1059B000004084B00C46B0F1795F0BDA2846FFF75F
:1059C00047FD042808BF00F06FF8284608B02146BC
:1059D000BDE8F08D2A460B461046FFF706FA06464C
:1059E0000F462A462346FFF700FA804626488A4695
:1059F00032463B4605217844FFF780FF83461098E6
:105A0000029160B3214A224B40465146FFF7EDF91F
:105A1000CDE900015A4640465146029BFFF7E5F9A1
:105A200082468846DDE906014FF0FF32FFF790FC21
:105A300052464346FFF7D3F932463B46FFF7D5F9C6
:105A4000DDE90623FFF7CBF9DDE90023FFF7C7F90E
:105A500008B02A462346BDE8F04DFFF7C3B90B4610
:105A60005A4630463946FFF7C0F9084A084BFFF757
:105A700015F942465346FFF7B8F908B02A462346BF
:105A8000BDE8F04DFFF70AB9C60B00004955555562
:105A90005555C5BF0122FFF75BBC002213461046D7
:105AA0001146FFF714BA0000024A00201107FFF761
:105AB0004FBC000001FDFFFF02E008C8121F08C133
:105AC000002AFAD170477047002001E001C1121F7F
:105AD000002AFBD1704700000149086070470000B0
